{
  "contractName": "ConsentManagement",
  "abi": [
    {
      "anonymous": false,
      "inputs": [
        {
          "indexed": true,
          "internalType": "address",
          "name": "patient",
          "type": "address"
        },
        {
          "indexed": true,
          "internalType": "address",
          "name": "accessor",
          "type": "address"
        },
        {
          "indexed": false,
          "internalType": "string",
          "name": "dataType",
          "type": "string"
        },
        {
          "indexed": false,
          "internalType": "bool",
          "name": "granted",
          "type": "bool"
        },
        {
          "indexed": false,
          "internalType": "uint256",
          "name": "timestamp",
          "type": "uint256"
        }
      ],
      "name": "ConsentChecked",
      "type": "event"
    },
    {
      "anonymous": false,
      "inputs": [
        {
          "indexed": true,
          "internalType": "address",
          "name": "patient",
          "type": "address"
        },
        {
          "indexed": true,
          "internalType": "address",
          "name": "accessor",
          "type": "address"
        },
        {
          "indexed": false,
          "internalType": "string",
          "name": "dataType",
          "type": "string"
        },
        {
          "indexed": false,
          "internalType": "uint256",
          "name": "expiryTimestamp",
          "type": "uint256"
        },
        {
          "indexed": false,
          "internalType": "bytes32",
          "name": "txHash",
          "type": "bytes32"
        }
      ],
      "name": "ConsentGranted",
      "type": "event"
    },
    {
      "anonymous": false,
      "inputs": [
        {
          "indexed": true,
          "internalType": "address",
          "name": "patient",
          "type": "address"
        },
        {
          "indexed": true,
          "internalType": "address",
          "name": "accessor",
          "type": "address"
        },
        {
          "indexed": false,
          "internalType": "string",
          "name": "dataType",
          "type": "string"
        },
        {
          "indexed": false,
          "internalType": "bytes32",
          "name": "txHash",
          "type": "bytes32"
        }
      ],
      "name": "ConsentRevoked",
      "type": "event"
    },
    {
      "inputs": [
        {
          "internalType": "address",
          "name": "_accessor",
          "type": "address"
        },
        {
          "internalType": "string",
          "name": "_dataType",
          "type": "string"
        },
        {
          "internalType": "uint256",
          "name": "_expiry",
          "type": "uint256"
        }
      ],
      "name": "grantConsent",
      "outputs": [],
      "stateMutability": "nonpayable",
      "type": "function"
    },
    {
      "inputs": [
        {
          "internalType": "address",
          "name": "_accessor",
          "type": "address"
        },
        {
          "internalType": "string",
          "name": "_dataType",
          "type": "string"
        }
      ],
      "name": "revokeConsent",
      "outputs": [],
      "stateMutability": "nonpayable",
      "type": "function"
    },
    {
      "inputs": [
        {
          "internalType": "address",
          "name": "_patient",
          "type": "address"
        },
        {
          "internalType": "address",
          "name": "_accessor",
          "type": "address"
        },
        {
          "internalType": "string",
          "name": "_dataType",
          "type": "string"
        }
      ],
      "name": "checkConsent",
      "outputs": [
        {
          "internalType": "bool",
          "name": "granted",
          "type": "bool"
        },
        {
          "internalType": "uint256",
          "name": "expiry",
          "type": "uint256"
        }
      ],
      "stateMutability": "nonpayable",
      "type": "function"
    },
    {
      "inputs": [
        {
          "internalType": "address",
          "name": "_patient",
          "type": "address"
        },
        {
          "internalType": "address",
          "name": "_accessor",
          "type": "address"
        },
        {
          "internalType": "string",
          "name": "_dataType",
          "type": "string"
        }
      ],
      "name": "checkConsentView",
      "outputs": [
        {
          "internalType": "bool",
          "name": "granted",
          "type": "bool"
        },
        {
          "internalType": "uint256",
          "name": "expiry",
          "type": "uint256"
        }
      ],
      "stateMutability": "view",
      "type": "function",
      "constant": true
    },
    {
      "inputs": [
        {
          "internalType": "address",
          "name": "_patient",
          "type": "address"
        }
      ],
      "name": "getPatientAccessors",
      "outputs": [
        {
          "internalType": "address[]",
          "name": "",
          "type": "address[]"
        }
      ],
      "stateMutability": "view",
      "type": "function",
      "constant": true
    },
    {
      "inputs": [
        {
          "internalType": "address",
          "name": "_patient",
          "type": "address"
        },
        {
          "internalType": "address",
          "name": "_accessor",
          "type": "address"
        }
      ],
      "name": "getGrantedDataTypes",
      "outputs": [
        {
          "internalType": "string[]",
          "name": "",
          "type": "string[]"
        }
      ],
      "stateMutability": "view",
      "type": "function",
      "constant": true
    },
    {
      "inputs": [
        {
          "internalType": "address",
          "name": "_patient",
          "type": "address"
        },
        {
          "internalType": "address",
          "name": "_accessor",
          "type": "address"
        },
        {
          "internalType": "string",
          "name": "_dataType",
          "type": "string"
        }
      ],
      "name": "getConsentDetails",
      "outputs": [
        {
          "internalType": "bool",
          "name": "isActive",
          "type": "bool"
        },
        {
          "internalType": "uint256",
          "name": "grantedAt",
          "type": "uint256"
        },
        {
          "internalType": "uint256",
          "name": "expiryTimestamp",
          "type": "uint256"
        },
        {
          "internalType": "bytes32",
          "name": "consentHash",
          "type": "bytes32"
        }
      ],
      "stateMutability": "view",
      "type": "function",
      "constant": true
    },
    {
      "inputs": [],
      "name": "revokeAllConsents",
      "outputs": [],
      "stateMutability": "nonpayable",
      "type": "function"
    },
    {
      "inputs": [
        {
          "internalType": "address",
          "name": "_patient",
          "type": "address"
        }
      ],
      "name": "getActiveConsentCount",
      "outputs": [
        {
          "internalType": "uint256",
          "name": "count",
          "type": "uint256"
        }
      ],
      "stateMutability": "view",
      "type": "function",
      "constant": true
    }
  ],
  "bytecode": "0x608060405234801561001057600080fd5b50611e1e806100206000396000f3fe608060405234801561001057600080fd5b50600436106100935760003560e01c80636ebda464116100665780636ebda464146101415780638eecad30146101565780639eff06b414610176578063b6f96af214610189578063bd41ad8b1461019157600080fd5b80634aace67f14610098578063535df4c7146100c15780635ac7d77b146100f6578063630cf6bb14610117575b600080fd5b6100ab6100a63660046117f5565b6101a4565b6040516100b89190611817565b60405180910390f35b6100d46100cf366004611907565b610249565b60408051941515855260208501939093529183015260608201526080016100b8565b6101096101043660046117f5565b6103ef565b6040519081526020016100b8565b61012a610125366004611907565b610783565b6040805192151583526020830191909152016100b8565b61015461014f366004611965565b610956565b005b6101696101643660046119bc565b610d24565b6040516100b89190611a3f565b61012a610184366004611907565b610e69565b610154611165565b61015461019f366004611aa1565b611584565b60606001600160a01b0382166101d55760405162461bcd60e51b81526004016101cc90611aef565b60405180910390fd5b6001600160a01b0382166000908152600160209081526040918290208054835181840281018401909452808452909183018282801561023d57602002820191906000526020600020905b81546001600160a01b0316815260019091019060200180831161021f575b50505050509050919050565b60008080806001600160a01b0387166102745760405162461bcd60e51b81526004016101cc90611aef565b6001600160a01b03861661029a5760405162461bcd60e51b81526004016101cc90611b26565b60008551116102bb5760405162461bcd60e51b81526004016101cc90611b5d565b6001600160a01b03808816600090815260208181526040808320938a16835292905281812091519091906102f0908890611b88565b90815260408051918290036020908101832060a084018352805460ff161515845260018101549184019190915260028101549183019190915260038101805460608401919061033e90611ba4565b80601f016020809104026020016040519081016040528092919081815260200182805461036a90611ba4565b80156103b75780601f1061038c576101008083540402835291602001916103b7565b820191906000526020600020905b81548152906001019060200180831161039a57829003601f168201915b5050509183525050600491909101546020918201528151908201516040830151608090930151919b909a509198509650945050505050565b60006001600160a01b0382166104175760405162461bcd60e51b81526004016101cc90611aef565b6001600160a01b03821660009081526001602090815260408083208054825181850281018501909352808352919290919083018282801561048157602002820191906000526020600020905b81546001600160a01b03168152600190910190602001808311610463575b5050505050905060005b815181101561077c576001600160a01b0384166000908152600360205260408120835182908590859081106104c2576104c2611bde565b60200260200101516001600160a01b03166001600160a01b03168152602001908152602001600020805480602002602001604051908101604052809291908181526020016000905b828210156105b657838290600052602060002001805461052990611ba4565b80601f016020809104026020016040519081016040528092919081815260200182805461055590611ba4565b80156105a25780601f10610577576101008083540402835291602001916105a2565b820191906000526020600020905b81548152906001019060200180831161058557829003601f168201915b50505050508152602001906001019061050a565b50505050905060005b8151811015610767576001600160a01b0386166000908152602081905260408120855182908790879081106105f6576105f6611bde565b60200260200101516001600160a01b03166001600160a01b0316815260200190815260200160002083838151811061063057610630611bde565b60200260200101516040516106459190611b88565b90815260408051918290036020908101832060a084018352805460ff161515845260018101549184019190915260028101549183019190915260038101805460608401919061069390611ba4565b80601f01602080910402602001604051908101604052809291908181526020018280546106bf90611ba4565b801561070c5780601f106106e15761010080835404028352916020019161070c565b820191906000526020600020905b8154815290600101906020018083116106ef57829003601f168201915b505050505081526020016004820154815250509050806000015180156107415750604081015115806107415750428160400151115b15610754578561075081611bf4565b9650505b508061075f81611bf4565b9150506105bf565b5050808061077490611bf4565b91505061048b565b5050919050565b6000806001600160a01b0385166107ac5760405162461bcd60e51b81526004016101cc90611aef565b6001600160a01b0384166107d25760405162461bcd60e51b81526004016101cc90611b26565b60008351116107f35760405162461bcd60e51b81526004016101cc90611b5d565b6001600160a01b0380861660009081526020818152604080832093881683529290528181209151909190610828908690611b88565b90815260408051918290036020908101832060a084018352805460ff161515845260018101549184019190915260028101549183019190915260038101805460608401919061087690611ba4565b80601f01602080910402602001604051908101604052809291908181526020018280546108a290611ba4565b80156108ef5780601f106108c4576101008083540402835291602001916108ef565b820191906000526020600020905b8154815290600101906020018083116108d257829003601f168201915b505050505081526020016004820154815250509050806000015161091a57600080925092505061094e565b604081015115801590610931575042816040015111155b1561094357600080925092505061094e565b604001516001925090505b935093915050565b336109735760405162461bcd60e51b81526004016101cc90611aef565b826001600160a01b03811661099a5760405162461bcd60e51b81526004016101cc90611b26565b336001600160a01b038216036109f25760405162461bcd60e51b815260206004820181905260248201527f43616e6e6f74206772616e7420636f6e73656e7420746f20796f757273656c6660448201526064016101cc565b826000815111610a405760405162461bcd60e51b81526020600482015260196024820152784461746120747970652063616e6e6f7420626520656d70747960381b60448201526064016101cc565b8215610a9557428311610a955760405162461bcd60e51b815260206004820152601c60248201527f457870697279206d75737420626520696e20746865206675747572650000000060448201526064016101cc565b60003386864287604051602001610ab0959493929190611c1b565b60408051601f19818403018152828252805160209182012060a08401835260018452428483015283830188905260608401899052608084018190523360009081528083528381206001600160a01b038c168252909252908290209151909350610b1a908890611b88565b90815260408051602092819003830190208351815460ff1916901515178155918301516001830155820151600282015560608201516003820190610b5e9082611cbc565b50608091909101516004909101553360009081526002602090815260408083206001600160a01b038a16845290915290205460ff16610bf257336000818152600160208181526040808420805480850182559085528285200180546001600160a01b0319166001600160a01b038d1690811790915594845260028252808420948452939052919020805460ff191690911790555b3360009081526004602090815260408083206001600160a01b038a168452909152908190209051610c24908790611b88565b9081526040519081900360200190205460ff16610ccd573360009081526003602090815260408083206001600160a01b038a168452825282208054600181018255908352912001610c758682611cbc565b503360009081526004602090815260408083206001600160a01b038a16845290915290819020905160019190610cac908890611b88565b908152604051908190036020019020805491151560ff199092169190911790555b856001600160a01b0316336001600160a01b03167f6fe570e25162fdfef74989bee790b9479533ac3e85ca0e2fa9a2063fa67e741e878785604051610d1493929190611d7c565b60405180910390a3505050505050565b60606001600160a01b038316610d4c5760405162461bcd60e51b81526004016101cc90611aef565b6001600160a01b038216610d725760405162461bcd60e51b81526004016101cc90611b26565b6001600160a01b038084166000908152600360209081526040808320938616835292815282822080548451818402810184019095528085529092909184015b82821015610e5d578382906000526020600020018054610dd090611ba4565b80601f0160208091040260200160405190810160405280929190818152602001828054610dfc90611ba4565b8015610e495780601f10610e1e57610100808354040283529160200191610e49565b820191906000526020600020905b815481529060010190602001808311610e2c57829003601f168201915b505050505081526020019060010190610db1565b50505050905092915050565b6000806001600160a01b038516610e925760405162461bcd60e51b81526004016101cc90611aef565b6001600160a01b038416610eb85760405162461bcd60e51b81526004016101cc90611b26565b6000835111610ed95760405162461bcd60e51b81526004016101cc90611b5d565b6001600160a01b0380861660009081526020818152604080832093881683529290528181209151909190610f0e908690611b88565b90815260408051918290036020908101832060a084018352805460ff1615158452600181015491840191909152600281015491830191909152600381018054606084019190610f5c90611ba4565b80601f0160208091040260200160405190810160405280929190818152602001828054610f8890611ba4565b8015610fd55780601f10610faa57610100808354040283529160200191610fd5565b820191906000526020600020905b815481529060010190602001808311610fb857829003601f168201915b505050505081526020016004820154815250509050806000015161105057846001600160a01b0316866001600160a01b03167f87298fed805e2605c9718de9fbe98d0e3f855c6db7c8d55d9e5843881c8aa3088660004260405161103b93929190611da1565b60405180910390a3600080925092505061094e565b604081015115801590611067575042816040015111155b15611104576001600160a01b03808716600090815260208181526040808320938916835292905281812091519091906110a1908790611b88565b908152604051908190036020018120805492151560ff19909316929092179091556001600160a01b0380871691908816907f87298fed805e2605c9718de9fbe98d0e3f855c6db7c8d55d9e5843881c8aa3089061103b9088906000904290611da1565b846001600160a01b0316866001600160a01b03167f87298fed805e2605c9718de9fbe98d0e3f855c6db7c8d55d9e5843881c8aa3088660014260405161114c93929190611da1565b60405180910390a3604001516001969095509350505050565b336111825760405162461bcd60e51b81526004016101cc90611aef565b336000908152600160209081526040808320805482518185028101850190935280835291929091908301828280156111e357602002820191906000526020600020905b81546001600160a01b031681526001909101906020018083116111c5575b5050505050905060005b8151811015611580573360009081526003602052604081208351829085908590811061121b5761121b611bde565b60200260200101516001600160a01b03166001600160a01b03168152602001908152602001600020805480602002602001604051908101604052809291908181526020016000905b8282101561130f57838290600052602060002001805461128290611ba4565b80601f01602080910402602001604051908101604052809291908181526020018280546112ae90611ba4565b80156112fb5780601f106112d0576101008083540402835291602001916112fb565b820191906000526020600020905b8154815290600101906020018083116112de57829003601f168201915b505050505081526020019060010190611263565b50505050905060005b815181101561156b57336000908152602081905260408120855190919086908690811061134757611347611bde565b60200260200101516001600160a01b03166001600160a01b0316815260200190815260200160002082828151811061138157611381611bde565b60200260200101516040516113969190611b88565b9081526040519081900360200190205460ff161561155957336000908152602081905260408120855182908790879081106113d3576113d3611bde565b60200260200101516001600160a01b03166001600160a01b0316815260200190815260200160002083838151811061140d5761140d611bde565b60200260200101516040516114229190611b88565b908152604051908190036020019020805491151560ff19909216919091179055835184908490811061145657611456611bde565b60200260200101516001600160a01b0316336001600160a01b03167f0772972a4e9f7152d2c9ecbc158b60bf428a711a84ea08dcadefe67823147f968484815181106114a4576114a4611bde565b6020026020010151600080336001600160a01b03166001600160a01b0316815260200190815260200160002060008989815181106114e4576114e4611bde565b60200260200101516001600160a01b03166001600160a01b0316815260200190815260200160002086868151811061151e5761151e611bde565b60200260200101516040516115339190611b88565b908152604051908190036020018120600401546115509291611dc6565b60405180910390a35b8061156381611bf4565b915050611318565b5050808061157890611bf4565b9150506111ed565b5050565b336115a15760405162461bcd60e51b81526004016101cc90611aef565b816001600160a01b0381166115c85760405162461bcd60e51b81526004016101cc90611b26565b336001600160a01b038216036116205760405162461bcd60e51b815260206004820181905260248201527f43616e6e6f74206772616e7420636f6e73656e7420746f20796f757273656c6660448201526064016101cc565b81600081511161166e5760405162461bcd60e51b81526020600482015260196024820152784461746120747970652063616e6e6f7420626520656d70747960381b60448201526064016101cc565b336000908152602081815260408083206001600160a01b038816845290915290819020905161169e908590611b88565b9081526040519081900360200190205460ff166116fd5760405162461bcd60e51b815260206004820152601760248201527f4e6f2061637469766520636f6e73656e7420666f756e6400000000000000000060448201526064016101cc565b336000908152602081815260408083206001600160a01b0388168452909152808220905161172c908690611b88565b9081526040805160209281900383018120600401543360009081528085528381206001600160a01b038b16825290945291832091935061176d908790611b88565b908152604051908190036020018120805492151560ff19909316929092179091556001600160a01b0386169033907f0772972a4e9f7152d2c9ecbc158b60bf428a711a84ea08dcadefe67823147f96906117ca9088908690611dc6565b60405180910390a35050505050565b80356001600160a01b03811681146117f057600080fd5b919050565b60006020828403121561180757600080fd5b611810826117d9565b9392505050565b6020808252825182820181905260009190848201906040850190845b818110156118585783516001600160a01b031683529284019291840191600101611833565b50909695505050505050565b634e487b7160e01b600052604160045260246000fd5b600082601f83011261188b57600080fd5b813567ffffffffffffffff808211156118a6576118a6611864565b604051601f8301601f19908116603f011681019082821181831017156118ce576118ce611864565b816040528381528660208588010111156118e757600080fd5b836020870160208301376000602085830101528094505050505092915050565b60008060006060848603121561191c57600080fd5b611925846117d9565b9250611933602085016117d9565b9150604084013567ffffffffffffffff81111561194f57600080fd5b61195b8682870161187a565b9150509250925092565b60008060006060848603121561197a57600080fd5b611983846117d9565b9250602084013567ffffffffffffffff81111561199f57600080fd5b6119ab8682870161187a565b925050604084013590509250925092565b600080604083850312156119cf57600080fd5b6119d8836117d9565b91506119e6602084016117d9565b90509250929050565b60005b83811015611a0a5781810151838201526020016119f2565b50506000910152565b60008151808452611a2b8160208601602086016119ef565b601f01601f19169290920160200192915050565b6000602080830181845280855180835260408601915060408160051b870101925083870160005b82811015611a9457603f19888603018452611a82858351611a13565b94509285019290850190600101611a66565b5092979650505050505050565b60008060408385031215611ab457600080fd5b611abd836117d9565b9150602083013567ffffffffffffffff811115611ad957600080fd5b611ae58582860161187a565b9150509250929050565b60208082526017908201527f496e76616c69642070617469656e742061646472657373000000000000000000604082015260600190565b60208082526018908201527f496e76616c6964206163636573736f7220616464726573730000000000000000604082015260600190565b602080825260119082015270496e76616c69642064617461207479706560781b604082015260600190565b60008251611b9a8184602087016119ef565b9190910192915050565b600181811c90821680611bb857607f821691505b602082108103611bd857634e487b7160e01b600052602260045260246000fd5b50919050565b634e487b7160e01b600052603260045260246000fd5b600060018201611c1457634e487b7160e01b600052601160045260246000fd5b5060010190565b60006bffffffffffffffffffffffff19808860601b168352808760601b166014840152508451611c528160288501602089016119ef565b90910160288101939093525060488201526068019392505050565b601f821115611cb757600081815260208120601f850160051c81016020861015611c945750805b601f850160051c820191505b81811015611cb357828155600101611ca0565b5050505b505050565b815167ffffffffffffffff811115611cd657611cd6611864565b611cea81611ce48454611ba4565b84611c6d565b602080601f831160018114611d1f5760008415611d075750858301515b600019600386901b1c1916600185901b178555611cb3565b600085815260208120601f198616915b82811015611d4e57888601518255948401946001909101908401611d2f565b5085821015611d6c5787850151600019600388901b60f8161c191681555b5050505050600190811b01905550565b606081526000611d8f6060830186611a13565b60208301949094525060400152919050565b606081526000611db46060830186611a13565b93151560208301525060400152919050565b604081526000611dd96040830185611a13565b9050826020830152939250505056fea264697066735822122004b3553fb157409fe3ed35ff1c8f722862b02646a75c2f0715d0f3ce10a6ea2c64736f6c63430008130033",
  "immutableReferences": {},
  "source": "// SPDX-License-Identifier: MIT\r\npragma solidity ^0.8.19;\r\n\r\n/**\r\n * @title ConsentManagement\r\n * @dev Smart contract for managing patient consent for medical record access\r\n * @author ARCHBTW Team - MedLedger\r\n */\r\ncontract ConsentManagement {\r\n    \r\n    // Events\r\n    event ConsentGranted(\r\n        address indexed patient,\r\n        address indexed accessor,\r\n        string dataType,\r\n        uint256 expiryTimestamp,\r\n        bytes32 txHash\r\n    );\r\n    \r\n    event ConsentRevoked(\r\n        address indexed patient,\r\n        address indexed accessor,\r\n        string dataType,\r\n        bytes32 txHash\r\n    );\r\n    \r\n    event ConsentChecked(\r\n        address indexed patient,\r\n        address indexed accessor,\r\n        string dataType,\r\n        bool granted,\r\n        uint256 timestamp\r\n    );\r\n    \r\n    // Structs\r\n    struct Consent {\r\n        bool isActive;\r\n        uint256 grantedAt;\r\n        uint256 expiryTimestamp;\r\n        string dataType;\r\n        bytes32 consentHash;\r\n    }\r\n    \r\n    // Mappings\r\n    mapping(address => mapping(address => mapping(string => Consent))) private consents;\r\n    mapping(address => address[]) private patientAccessors;\r\n    mapping(address => mapping(address => bool)) private hasAccessorBeenAdded;\r\n    mapping(address => mapping(address => string[])) private grantedDataTypes;\r\n    mapping(address => mapping(address => mapping(string => bool))) private dataTypeExists;\r\n    \r\n    // Modifiers\r\n    modifier onlyPatient() {\r\n        require(msg.sender != address(0), \"Invalid patient address\");\r\n        _;\r\n    }\r\n    \r\n    modifier validAccessor(address _accessor) {\r\n        require(_accessor != address(0), \"Invalid accessor address\");\r\n        require(_accessor != msg.sender, \"Cannot grant consent to yourself\");\r\n        _;\r\n    }\r\n    \r\n    modifier validDataType(string memory _dataType) {\r\n        require(bytes(_dataType).length > 0, \"Data type cannot be empty\");\r\n        _;\r\n    }\r\n    \r\n    /**\r\n     * @dev Grant consent for a specific data type to an accessor\r\n     */\r\n    function grantConsent(\r\n        address _accessor,\r\n        string memory _dataType,\r\n        uint256 _expiry\r\n    ) \r\n        external \r\n        onlyPatient \r\n        validAccessor(_accessor) \r\n        validDataType(_dataType)\r\n    {\r\n        if (_expiry != 0) {\r\n            require(_expiry > block.timestamp, \"Expiry must be in the future\");\r\n        }\r\n        \r\n        bytes32 consentHash = keccak256(\r\n            abi.encodePacked(\r\n                msg.sender,\r\n                _accessor,\r\n                _dataType,\r\n                block.timestamp,\r\n                _expiry\r\n            )\r\n        );\r\n        \r\n        consents[msg.sender][_accessor][_dataType] = Consent({\r\n            isActive: true,\r\n            grantedAt: block.timestamp,\r\n            expiryTimestamp: _expiry,\r\n            dataType: _dataType,\r\n            consentHash: consentHash\r\n        });\r\n        \r\n        if (!hasAccessorBeenAdded[msg.sender][_accessor]) {\r\n            patientAccessors[msg.sender].push(_accessor);\r\n            hasAccessorBeenAdded[msg.sender][_accessor] = true;\r\n        }\r\n        \r\n        if (!dataTypeExists[msg.sender][_accessor][_dataType]) {\r\n            grantedDataTypes[msg.sender][_accessor].push(_dataType);\r\n            dataTypeExists[msg.sender][_accessor][_dataType] = true;\r\n        }\r\n        \r\n        emit ConsentGranted(\r\n            msg.sender,\r\n            _accessor,\r\n            _dataType,\r\n            _expiry,\r\n            consentHash\r\n        );\r\n    }\r\n    \r\n    /**\r\n     * @dev Revoke consent for a specific data type from an accessor\r\n     */\r\n    function revokeConsent(\r\n        address _accessor,\r\n        string memory _dataType\r\n    ) \r\n        external \r\n        onlyPatient \r\n        validAccessor(_accessor) \r\n        validDataType(_dataType)\r\n    {\r\n        require(\r\n            consents[msg.sender][_accessor][_dataType].isActive,\r\n            \"No active consent found\"\r\n        );\r\n        \r\n        bytes32 consentHash = consents[msg.sender][_accessor][_dataType].consentHash;\r\n        consents[msg.sender][_accessor][_dataType].isActive = false;\r\n        \r\n        emit ConsentRevoked(\r\n            msg.sender,\r\n            _accessor,\r\n            _dataType,\r\n            consentHash\r\n        );\r\n    }\r\n    \r\n    /**\r\n     * @dev Check if an accessor has valid consent for a specific data type\r\n     * This function can modify state (auto-revoke expired consents) and emits events\r\n     */\r\n    function checkConsent(\r\n        address _patient,\r\n        address _accessor,\r\n        string memory _dataType\r\n    ) \r\n        external \r\n        returns (bool granted, uint256 expiry)\r\n    {\r\n        require(_patient != address(0), \"Invalid patient address\");\r\n        require(_accessor != address(0), \"Invalid accessor address\");\r\n        require(bytes(_dataType).length > 0, \"Invalid data type\");\r\n        \r\n        Consent memory consent = consents[_patient][_accessor][_dataType];\r\n        \r\n        if (!consent.isActive) {\r\n            emit ConsentChecked(_patient, _accessor, _dataType, false, block.timestamp);\r\n            return (false, 0);\r\n        }\r\n        \r\n        if (consent.expiryTimestamp != 0 && consent.expiryTimestamp <= block.timestamp) {\r\n            consents[_patient][_accessor][_dataType].isActive = false;\r\n            emit ConsentChecked(_patient, _accessor, _dataType, false, block.timestamp);\r\n            return (false, 0);\r\n        }\r\n        \r\n        emit ConsentChecked(_patient, _accessor, _dataType, true, block.timestamp);\r\n        return (true, consent.expiryTimestamp);\r\n    }\r\n    \r\n    /**\r\n     * @dev Check consent without modifying state (view function for other contracts)\r\n     * This function does NOT auto-revoke expired consents and does NOT emit events\r\n     */\r\n    function checkConsentView(\r\n        address _patient,\r\n        address _accessor,\r\n        string memory _dataType\r\n    ) \r\n        external \r\n        view\r\n        returns (bool granted, uint256 expiry)\r\n    {\r\n        require(_patient != address(0), \"Invalid patient address\");\r\n        require(_accessor != address(0), \"Invalid accessor address\");\r\n        require(bytes(_dataType).length > 0, \"Invalid data type\");\r\n        \r\n        Consent memory consent = consents[_patient][_accessor][_dataType];\r\n        \r\n        if (!consent.isActive) {\r\n            return (false, 0);\r\n        }\r\n        \r\n        if (consent.expiryTimestamp != 0 && consent.expiryTimestamp <= block.timestamp) {\r\n            return (false, 0);\r\n        }\r\n        \r\n        return (true, consent.expiryTimestamp);\r\n    }\r\n    \r\n    /**\r\n     * @dev Get all accessors for a patient\r\n     */\r\n    function getPatientAccessors(address _patient) \r\n        external \r\n        view \r\n        returns (address[] memory) \r\n    {\r\n        require(_patient != address(0), \"Invalid patient address\");\r\n        return patientAccessors[_patient];\r\n    }\r\n    \r\n    /**\r\n     * @dev Get all data types granted to an accessor by a patient\r\n     */\r\n    function getGrantedDataTypes(address _patient, address _accessor) \r\n        external \r\n        view \r\n        returns (string[] memory) \r\n    {\r\n        require(_patient != address(0), \"Invalid patient address\");\r\n        require(_accessor != address(0), \"Invalid accessor address\");\r\n        return grantedDataTypes[_patient][_accessor];\r\n    }\r\n    \r\n    /**\r\n     * @dev Get detailed consent information\r\n     */\r\n    function getConsentDetails(\r\n        address _patient,\r\n        address _accessor,\r\n        string memory _dataType\r\n    ) \r\n        external \r\n        view \r\n        returns (\r\n            bool isActive,\r\n            uint256 grantedAt,\r\n            uint256 expiryTimestamp,\r\n            bytes32 consentHash\r\n        ) \r\n    {\r\n        require(_patient != address(0), \"Invalid patient address\");\r\n        require(_accessor != address(0), \"Invalid accessor address\");\r\n        require(bytes(_dataType).length > 0, \"Invalid data type\");\r\n        \r\n        Consent memory consent = consents[_patient][_accessor][_dataType];\r\n        \r\n        return (\r\n            consent.isActive,\r\n            consent.grantedAt,\r\n            consent.expiryTimestamp,\r\n            consent.consentHash\r\n        );\r\n    }\r\n    \r\n    /**\r\n     * @dev Revoke all consents granted by a patient\r\n     */\r\n    function revokeAllConsents() external onlyPatient {\r\n        address[] memory accessors = patientAccessors[msg.sender];\r\n        \r\n        for (uint i = 0; i < accessors.length; i++) {\r\n            string[] memory dataTypes = grantedDataTypes[msg.sender][accessors[i]];\r\n            \r\n            for (uint j = 0; j < dataTypes.length; j++) {\r\n                if (consents[msg.sender][accessors[i]][dataTypes[j]].isActive) {\r\n                    consents[msg.sender][accessors[i]][dataTypes[j]].isActive = false;\r\n                    \r\n                    emit ConsentRevoked(\r\n                        msg.sender,\r\n                        accessors[i],\r\n                        dataTypes[j],\r\n                        consents[msg.sender][accessors[i]][dataTypes[j]].consentHash\r\n                    );\r\n                }\r\n            }\r\n        }\r\n    }\r\n    \r\n    /**\r\n     * @dev Get the total number of active consents for a patient\r\n     */\r\n    function getActiveConsentCount(address _patient) \r\n        external \r\n        view \r\n        returns (uint256 count) \r\n    {\r\n        require(_patient != address(0), \"Invalid patient address\");\r\n        \r\n        address[] memory accessors = patientAccessors[_patient];\r\n        \r\n        for (uint i = 0; i < accessors.length; i++) {\r\n            string[] memory dataTypes = grantedDataTypes[_patient][accessors[i]];\r\n            \r\n            for (uint j = 0; j < dataTypes.length; j++) {\r\n                Consent memory consent = consents[_patient][accessors[i]][dataTypes[j]];\r\n                \r\n                if (consent.isActive && \r\n                    (consent.expiryTimestamp == 0 || consent.expiryTimestamp > block.timestamp)) {\r\n                    count++;\r\n                }\r\n            }\r\n        }\r\n        \r\n        return count;\r\n    }\r\n}",
  "sourcePath": "C:\\Lohith\\psg\\PULSE\\medledger-contracts\\contracts\\ConsentManagement.sol",
  "compiler": {
    "name": "solc",
    "version": "0.8.19+commit.7dd6d404.Emscripten.clang"
  },
  "schemaVersion": "3.4.16",
  "updatedAt": "2025-08-16T15:19:15.310Z",
  "networkType": "ethereum",
  "devdoc": {
    "author": "ARCHBTW Team - MedLedger",
    "details": "Smart contract for managing patient consent for medical record access",
    "kind": "dev",
    "methods": {
      "checkConsent(address,address,string)": {
        "details": "Check if an accessor has valid consent for a specific data type This function can modify state (auto-revoke expired consents) and emits events"
      },
      "checkConsentView(address,address,string)": {
        "details": "Check consent without modifying state (view function for other contracts) This function does NOT auto-revoke expired consents and does NOT emit events"
      },
      "getActiveConsentCount(address)": {
        "details": "Get the total number of active consents for a patient"
      },
      "getConsentDetails(address,address,string)": {
        "details": "Get detailed consent information"
      },
      "getGrantedDataTypes(address,address)": {
        "details": "Get all data types granted to an accessor by a patient"
      },
      "getPatientAccessors(address)": {
        "details": "Get all accessors for a patient"
      },
      "grantConsent(address,string,uint256)": {
        "details": "Grant consent for a specific data type to an accessor"
      },
      "revokeAllConsents()": {
        "details": "Revoke all consents granted by a patient"
      },
      "revokeConsent(address,string)": {
        "details": "Revoke consent for a specific data type from an accessor"
      }
    },
    "title": "ConsentManagement",
    "version": 1
  },
  "userdoc": {
    "kind": "user",
    "methods": {},
    "version": 1
  }
}