{
  "contractName": "MultiSignatureAccess",
  "abi": [
    {
      "inputs": [
        {
          "internalType": "address",
          "name": "_consentContractAddress",
          "type": "address"
        }
      ],
      "stateMutability": "nonpayable",
      "type": "constructor"
    },
    {
      "anonymous": false,
      "inputs": [
        {
          "indexed": true,
          "internalType": "bytes32",
          "name": "proposalId",
          "type": "bytes32"
        },
        {
          "indexed": true,
          "internalType": "address",
          "name": "approver",
          "type": "address"
        },
        {
          "indexed": false,
          "internalType": "uint256",
          "name": "currentApprovals",
          "type": "uint256"
        },
        {
          "indexed": false,
          "internalType": "uint256",
          "name": "requiredSignatures",
          "type": "uint256"
        }
      ],
      "name": "ProposalApproved",
      "type": "event"
    },
    {
      "anonymous": false,
      "inputs": [
        {
          "indexed": true,
          "internalType": "bytes32",
          "name": "proposalId",
          "type": "bytes32"
        },
        {
          "indexed": true,
          "internalType": "address",
          "name": "proposer",
          "type": "address"
        },
        {
          "indexed": true,
          "internalType": "address",
          "name": "patient",
          "type": "address"
        },
        {
          "indexed": false,
          "internalType": "string",
          "name": "dataType",
          "type": "string"
        },
        {
          "indexed": false,
          "internalType": "string",
          "name": "reason",
          "type": "string"
        },
        {
          "indexed": false,
          "internalType": "uint256",
          "name": "deadline",
          "type": "uint256"
        },
        {
          "indexed": false,
          "internalType": "uint256",
          "name": "requiredSignatures",
          "type": "uint256"
        }
      ],
      "name": "ProposalCreated",
      "type": "event"
    },
    {
      "anonymous": false,
      "inputs": [
        {
          "indexed": true,
          "internalType": "bytes32",
          "name": "proposalId",
          "type": "bytes32"
        },
        {
          "indexed": true,
          "internalType": "address",
          "name": "executor",
          "type": "address"
        },
        {
          "indexed": false,
          "internalType": "bool",
          "name": "success",
          "type": "bool"
        },
        {
          "indexed": false,
          "internalType": "uint256",
          "name": "executedAt",
          "type": "uint256"
        }
      ],
      "name": "ProposalExecuted",
      "type": "event"
    },
    {
      "anonymous": false,
      "inputs": [
        {
          "indexed": true,
          "internalType": "bytes32",
          "name": "proposalId",
          "type": "bytes32"
        },
        {
          "indexed": false,
          "internalType": "uint256",
          "name": "expiredAt",
          "type": "uint256"
        }
      ],
      "name": "ProposalExpired",
      "type": "event"
    },
    {
      "anonymous": false,
      "inputs": [
        {
          "indexed": true,
          "internalType": "bytes32",
          "name": "proposalId",
          "type": "bytes32"
        },
        {
          "indexed": true,
          "internalType": "address",
          "name": "rejector",
          "type": "address"
        },
        {
          "indexed": false,
          "internalType": "string",
          "name": "reason",
          "type": "string"
        }
      ],
      "name": "ProposalRejected",
      "type": "event"
    },
    {
      "inputs": [],
      "name": "admin",
      "outputs": [
        {
          "internalType": "address",
          "name": "",
          "type": "address"
        }
      ],
      "stateMutability": "view",
      "type": "function",
      "constant": true
    },
    {
      "inputs": [
        {
          "internalType": "uint256",
          "name": "",
          "type": "uint256"
        }
      ],
      "name": "allProposalIds",
      "outputs": [
        {
          "internalType": "bytes32",
          "name": "",
          "type": "bytes32"
        }
      ],
      "stateMutability": "view",
      "type": "function",
      "constant": true
    },
    {
      "inputs": [
        {
          "internalType": "address",
          "name": "",
          "type": "address"
        },
        {
          "internalType": "uint256",
          "name": "",
          "type": "uint256"
        }
      ],
      "name": "approverHistory",
      "outputs": [
        {
          "internalType": "bytes32",
          "name": "",
          "type": "bytes32"
        }
      ],
      "stateMutability": "view",
      "type": "function",
      "constant": true
    },
    {
      "inputs": [
        {
          "internalType": "address",
          "name": "",
          "type": "address"
        }
      ],
      "name": "approverRoles",
      "outputs": [
        {
          "internalType": "string",
          "name": "",
          "type": "string"
        }
      ],
      "stateMutability": "view",
      "type": "function",
      "constant": true
    },
    {
      "inputs": [
        {
          "internalType": "address",
          "name": "",
          "type": "address"
        }
      ],
      "name": "authorizedApprovers",
      "outputs": [
        {
          "internalType": "bool",
          "name": "",
          "type": "bool"
        }
      ],
      "stateMutability": "view",
      "type": "function",
      "constant": true
    },
    {
      "inputs": [],
      "name": "consentContract",
      "outputs": [
        {
          "internalType": "contract ConsentManagement",
          "name": "",
          "type": "address"
        }
      ],
      "stateMutability": "view",
      "type": "function",
      "constant": true
    },
    {
      "inputs": [],
      "name": "defaultDeadline",
      "outputs": [
        {
          "internalType": "uint256",
          "name": "",
          "type": "uint256"
        }
      ],
      "stateMutability": "view",
      "type": "function",
      "constant": true
    },
    {
      "inputs": [],
      "name": "emergencyDeadline",
      "outputs": [
        {
          "internalType": "uint256",
          "name": "",
          "type": "uint256"
        }
      ],
      "stateMutability": "view",
      "type": "function",
      "constant": true
    },
    {
      "inputs": [
        {
          "internalType": "bytes32",
          "name": "",
          "type": "bytes32"
        }
      ],
      "name": "proposals",
      "outputs": [
        {
          "internalType": "bytes32",
          "name": "proposalId",
          "type": "bytes32"
        },
        {
          "internalType": "address",
          "name": "proposer",
          "type": "address"
        },
        {
          "internalType": "address",
          "name": "patient",
          "type": "address"
        },
        {
          "internalType": "string",
          "name": "dataType",
          "type": "string"
        },
        {
          "internalType": "enum MultiSignatureAccess.AccessType",
          "name": "accessType",
          "type": "uint8"
        },
        {
          "internalType": "string",
          "name": "reason",
          "type": "string"
        },
        {
          "internalType": "uint256",
          "name": "deadline",
          "type": "uint256"
        },
        {
          "internalType": "uint256",
          "name": "createdAt",
          "type": "uint256"
        },
        {
          "internalType": "uint256",
          "name": "executedAt",
          "type": "uint256"
        },
        {
          "internalType": "uint256",
          "name": "requiredSignatures",
          "type": "uint256"
        },
        {
          "internalType": "enum MultiSignatureAccess.ProposalStatus",
          "name": "status",
          "type": "uint8"
        },
        {
          "internalType": "string",
          "name": "rejectionReason",
          "type": "string"
        }
      ],
      "stateMutability": "view",
      "type": "function",
      "constant": true
    },
    {
      "inputs": [
        {
          "internalType": "address",
          "name": "",
          "type": "address"
        },
        {
          "internalType": "uint256",
          "name": "",
          "type": "uint256"
        }
      ],
      "name": "proposerHistory",
      "outputs": [
        {
          "internalType": "bytes32",
          "name": "",
          "type": "bytes32"
        }
      ],
      "stateMutability": "view",
      "type": "function",
      "constant": true
    },
    {
      "inputs": [],
      "name": "signatureRequirements",
      "outputs": [
        {
          "internalType": "uint256",
          "name": "standardAccess",
          "type": "uint256"
        },
        {
          "internalType": "uint256",
          "name": "emergencyAccess",
          "type": "uint256"
        },
        {
          "internalType": "uint256",
          "name": "researchAccess",
          "type": "uint256"
        },
        {
          "internalType": "uint256",
          "name": "legalAccess",
          "type": "uint256"
        },
        {
          "internalType": "uint256",
          "name": "insuranceAccess",
          "type": "uint256"
        }
      ],
      "stateMutability": "view",
      "type": "function",
      "constant": true
    },
    {
      "inputs": [
        {
          "internalType": "address",
          "name": "_approver",
          "type": "address"
        },
        {
          "internalType": "string",
          "name": "_role",
          "type": "string"
        }
      ],
      "name": "addApprover",
      "outputs": [],
      "stateMutability": "nonpayable",
      "type": "function"
    },
    {
      "inputs": [
        {
          "internalType": "address",
          "name": "_approver",
          "type": "address"
        }
      ],
      "name": "removeApprover",
      "outputs": [],
      "stateMutability": "nonpayable",
      "type": "function"
    },
    {
      "inputs": [
        {
          "internalType": "uint256",
          "name": "_standard",
          "type": "uint256"
        },
        {
          "internalType": "uint256",
          "name": "_emergency",
          "type": "uint256"
        },
        {
          "internalType": "uint256",
          "name": "_research",
          "type": "uint256"
        },
        {
          "internalType": "uint256",
          "name": "_legal",
          "type": "uint256"
        },
        {
          "internalType": "uint256",
          "name": "_insurance",
          "type": "uint256"
        }
      ],
      "name": "updateSignatureRequirements",
      "outputs": [],
      "stateMutability": "nonpayable",
      "type": "function"
    },
    {
      "inputs": [
        {
          "internalType": "address",
          "name": "_patient",
          "type": "address"
        },
        {
          "internalType": "string",
          "name": "_dataType",
          "type": "string"
        },
        {
          "internalType": "enum MultiSignatureAccess.AccessType",
          "name": "_accessType",
          "type": "uint8"
        },
        {
          "internalType": "string",
          "name": "_reason",
          "type": "string"
        },
        {
          "internalType": "string[]",
          "name": "_ipfsHashes",
          "type": "string[]"
        }
      ],
      "name": "proposeAction",
      "outputs": [
        {
          "internalType": "bytes32",
          "name": "proposalId",
          "type": "bytes32"
        }
      ],
      "stateMutability": "nonpayable",
      "type": "function"
    },
    {
      "inputs": [
        {
          "internalType": "bytes32",
          "name": "_proposalId",
          "type": "bytes32"
        }
      ],
      "name": "approveAction",
      "outputs": [],
      "stateMutability": "nonpayable",
      "type": "function"
    },
    {
      "inputs": [
        {
          "internalType": "bytes32",
          "name": "_proposalId",
          "type": "bytes32"
        },
        {
          "internalType": "string",
          "name": "_reason",
          "type": "string"
        }
      ],
      "name": "rejectAction",
      "outputs": [],
      "stateMutability": "nonpayable",
      "type": "function"
    },
    {
      "inputs": [
        {
          "internalType": "bytes32",
          "name": "_proposalId",
          "type": "bytes32"
        }
      ],
      "name": "executeAction",
      "outputs": [
        {
          "internalType": "bool",
          "name": "success",
          "type": "bool"
        }
      ],
      "stateMutability": "nonpayable",
      "type": "function"
    },
    {
      "inputs": [
        {
          "internalType": "bytes32",
          "name": "_proposalId",
          "type": "bytes32"
        }
      ],
      "name": "markExpired",
      "outputs": [],
      "stateMutability": "nonpayable",
      "type": "function"
    },
    {
      "inputs": [
        {
          "internalType": "enum MultiSignatureAccess.AccessType",
          "name": "_accessType",
          "type": "uint8"
        }
      ],
      "name": "getRequiredSignatures",
      "outputs": [
        {
          "internalType": "uint256",
          "name": "",
          "type": "uint256"
        }
      ],
      "stateMutability": "view",
      "type": "function",
      "constant": true
    },
    {
      "inputs": [
        {
          "internalType": "bytes32",
          "name": "_proposalId",
          "type": "bytes32"
        }
      ],
      "name": "getProposalDetails",
      "outputs": [
        {
          "internalType": "address",
          "name": "proposer",
          "type": "address"
        },
        {
          "internalType": "address",
          "name": "patient",
          "type": "address"
        },
        {
          "internalType": "string",
          "name": "dataType",
          "type": "string"
        },
        {
          "internalType": "enum MultiSignatureAccess.AccessType",
          "name": "accessType",
          "type": "uint8"
        },
        {
          "internalType": "string",
          "name": "reason",
          "type": "string"
        },
        {
          "internalType": "uint256",
          "name": "deadline",
          "type": "uint256"
        },
        {
          "internalType": "uint256",
          "name": "createdAt",
          "type": "uint256"
        },
        {
          "internalType": "uint256",
          "name": "requiredSignatures",
          "type": "uint256"
        },
        {
          "internalType": "uint256",
          "name": "currentApprovals",
          "type": "uint256"
        },
        {
          "internalType": "enum MultiSignatureAccess.ProposalStatus",
          "name": "status",
          "type": "uint8"
        }
      ],
      "stateMutability": "view",
      "type": "function",
      "constant": true
    },
    {
      "inputs": [
        {
          "internalType": "bytes32",
          "name": "_proposalId",
          "type": "bytes32"
        }
      ],
      "name": "getProposalApprovers",
      "outputs": [
        {
          "internalType": "address[]",
          "name": "",
          "type": "address[]"
        }
      ],
      "stateMutability": "view",
      "type": "function",
      "constant": true
    },
    {
      "inputs": [
        {
          "internalType": "bytes32",
          "name": "_proposalId",
          "type": "bytes32"
        }
      ],
      "name": "getProposalIPFSHashes",
      "outputs": [
        {
          "internalType": "string[]",
          "name": "",
          "type": "string[]"
        }
      ],
      "stateMutability": "view",
      "type": "function",
      "constant": true
    },
    {
      "inputs": [
        {
          "internalType": "enum MultiSignatureAccess.ProposalStatus",
          "name": "_status",
          "type": "uint8"
        }
      ],
      "name": "getProposalsByStatus",
      "outputs": [
        {
          "internalType": "bytes32[]",
          "name": "",
          "type": "bytes32[]"
        }
      ],
      "stateMutability": "view",
      "type": "function",
      "constant": true
    },
    {
      "inputs": [
        {
          "internalType": "address",
          "name": "_proposer",
          "type": "address"
        }
      ],
      "name": "getProposalsByProposer",
      "outputs": [
        {
          "internalType": "bytes32[]",
          "name": "",
          "type": "bytes32[]"
        }
      ],
      "stateMutability": "view",
      "type": "function",
      "constant": true
    },
    {
      "inputs": [
        {
          "internalType": "address",
          "name": "_approver",
          "type": "address"
        }
      ],
      "name": "getProposalsByApprover",
      "outputs": [
        {
          "internalType": "bytes32[]",
          "name": "",
          "type": "bytes32[]"
        }
      ],
      "stateMutability": "view",
      "type": "function",
      "constant": true
    },
    {
      "inputs": [
        {
          "internalType": "bytes32",
          "name": "_proposalId",
          "type": "bytes32"
        },
        {
          "internalType": "address",
          "name": "_approver",
          "type": "address"
        }
      ],
      "name": "hasApproved",
      "outputs": [
        {
          "internalType": "bool",
          "name": "",
          "type": "bool"
        }
      ],
      "stateMutability": "view",
      "type": "function",
      "constant": true
    },
    {
      "inputs": [],
      "name": "getTotalProposals",
      "outputs": [
        {
          "internalType": "uint256",
          "name": "",
          "type": "uint256"
        }
      ],
      "stateMutability": "view",
      "type": "function",
      "constant": true
    },
    {
      "inputs": [],
      "name": "getSignatureRequirements",
      "outputs": [
        {
          "internalType": "uint256",
          "name": "standard",
          "type": "uint256"
        },
        {
          "internalType": "uint256",
          "name": "emergency",
          "type": "uint256"
        },
        {
          "internalType": "uint256",
          "name": "research",
          "type": "uint256"
        },
        {
          "internalType": "uint256",
          "name": "legal",
          "type": "uint256"
        },
        {
          "internalType": "uint256",
          "name": "insurance",
          "type": "uint256"
        }
      ],
      "stateMutability": "view",
      "type": "function",
      "constant": true
    },
    {
      "inputs": [
        {
          "internalType": "bytes32",
          "name": "_proposalId",
          "type": "bytes32"
        }
      ],
      "name": "isProposalExecuted",
      "outputs": [
        {
          "internalType": "bool",
          "name": "",
          "type": "bool"
        }
      ],
      "stateMutability": "view",
      "type": "function",
      "constant": true
    },
    {
      "inputs": [
        {
          "internalType": "address",
          "name": "_newConsentContract",
          "type": "address"
        }
      ],
      "name": "updateConsentContract",
      "outputs": [],
      "stateMutability": "nonpayable",
      "type": "function"
    }
  ],
  "bytecode": "0x608060405262015180600d55611c20600e553480156200001e57600080fd5b5060405162002c3f38038062002c3f83398101604081905262000041916200010d565b600c80546001600160a01b0319908116339081178355600080546001600160a01b03868116919094161781556040805160a081018252600380825260026020808401829052600484860181905260608501839052608090940183905260078390556008829055600993909355600a819055600b829055948452938152818320805460ff1916600117905581518083018352600d81526c20b236b4b734b9ba3930ba37b960991b818301529554909416825291909252902090620001059082620001e4565b5050620002b0565b6000602082840312156200012057600080fd5b81516001600160a01b03811681146200013857600080fd5b9392505050565b634e487b7160e01b600052604160045260246000fd5b600181811c908216806200016a57607f821691505b6020821081036200018b57634e487b7160e01b600052602260045260246000fd5b50919050565b601f821115620001df57600081815260208120601f850160051c81016020861015620001ba5750805b601f850160051c820191505b81811015620001db57828155600101620001c6565b5050505b505050565b81516001600160401b038111156200020057620002006200013f565b620002188162000211845462000155565b8462000191565b602080601f831160018114620002505760008415620002375750858301515b600019600386901b1c1916600185901b178555620001db565b600085815260208120601f198616915b82811015620002815788860151825594840194600190910190840162000260565b5085821015620002a05787850151600019600388901b60f8161c191681555b5050505050600190811b01905550565b61297f80620002c06000396000f3fe608060405234801561001057600080fd5b50600436106101e55760003560e01c8063a2b6f2641161010f578063e456766b116100a2578063edd0cd1911610071578063edd0cd191461048f578063ef211e05146104a2578063f851a440146104c2578063fe2bba08146104d557600080fd5b8063e456766b14610408578063e6f460c21461041b578063e801134c1461042e578063e9aac0f51461045757600080fd5b8063c97bfe6b116100de578063c97bfe6b146103af578063d9a0b359146103c2578063e103de46146103e2578063e125ab9c146103f557600080fd5b8063a2b6f2641461034b578063a4328b011461035e578063a51388c814610371578063c7c038d61461038457600080fd5b80634f3bb94e116101875780637b73c2ef116101565780637b73c2ef146102fc57806387e0aeb21461030557806394ffb81914610318578063999661931461032b57600080fd5b80634f3bb94e146102a157806362d98762146102c1578063654defbe146102d65780636cf4c88f146102e957600080fd5b806323cdc3f1116101c357806323cdc3f11461024757806332ed5b121461025a578063455c1c2914610285578063484f37051461028e57600080fd5b8063103ee573146101ea5780631a5007dd14610222578063230113a514610234575b600080fd5b61020d6101f8366004611eef565b60026020526000908152604090205460ff1681565b60405190151581526020015b60405180910390f35b6006545b604051908152602001610219565b610226610242366004611f11565b6104ef565b61020d610255366004611f3b565b610520565b61026d610268366004611f67565b610550565b6040516102199c9b9a9998979695949392919061200a565b610226600e5481565b61022661029c366004611f11565b610765565b6102b46102af366004611eef565b610781565b60405161021991906120ae565b6102d46102cf366004611f67565b6107ed565b005b6102d46102e4366004611eef565b610b6e565b6102d46102f7366004611eef565b610c10565b610226600d5481565b6102d4610313366004611f67565b610c70565b6102d46103263660046121a9565b610db3565b61033e610339366004611eef565b610e6f565b60405161021991906121f7565b6102d461035936600461220a565b610f09565b6102d461036c36600461223b565b611181565b6102b461037f366004612276565b6111e9565b600054610397906001600160a01b031681565b6040516001600160a01b039091168152602001610219565b6102266103bd366004611f67565b6113a5565b6103d56103d0366004611f67565b6113c6565b6040516102199190612297565b6102b46103f0366004611eef565b6114b5565b61020d610403366004611f67565b61151f565b61020d610416366004611f67565b61179c565b610226610429366004612308565b6117cd565b61044161043c366004611f67565b611860565b6040516102199a99989796959493929190612323565b600754600854600954600a54600b545b604080519586526020860194909452928401919091526060830152608082015260a001610219565b61022661049d3660046123aa565b611a0b565b6104b56104b0366004611f67565b611da8565b60405161021991906124da565b600c54610397906001600160a01b031681565b600754600854600954600a54600b54610467949392919085565b6005602052816000526040600020818154811061050b57600080fd5b90600052602060002001600091509150505481565b60008281526001602090815260408083206001600160a01b0385168452600c0190915290205460ff165b92915050565b600160208190526000918252604090912080549181015460028201546003830180546001600160a01b0393841694929093169261058c9061251b565b80601f01602080910402602001604051908101604052809291908181526020018280546105b89061251b565b80156106055780601f106105da57610100808354040283529160200191610605565b820191906000526020600020905b8154815290600101906020018083116105e857829003601f168201915b5050506004840154600585018054949560ff9092169491935091506106299061251b565b80601f01602080910402602001604051908101604052809291908181526020018280546106559061251b565b80156106a25780601f10610677576101008083540402835291602001916106a2565b820191906000526020600020905b81548152906001019060200180831161068557829003601f168201915b50505050509080600701549080600801549080600901549080600a01549080600b0160009054906101000a900460ff16908060100180546106e29061251b565b80601f016020809104026020016040519081016040528092919081815260200182805461070e9061251b565b801561075b5780601f106107305761010080835404028352916020019161075b565b820191906000526020600020905b81548152906001019060200180831161073e57829003601f168201915b505050505090508c565b6004602052816000526040600020818154811061050b57600080fd5b6001600160a01b0381166000908152600460209081526040918290208054835181840281018401909452808452606093928301828280156107e157602002820191906000526020600020905b8154815260200190600101908083116107cd575b50505050509050919050565b3360009081526002602052604090205460ff166108255760405162461bcd60e51b815260040161081c9061254f565b60405180910390fd5b6000818152600160208190526040909120015481906001600160a01b031661085f5760405162461bcd60e51b815260040161081c90612592565b81600080828152600160205260409020600b015460ff16600481111561088757610887611fd0565b146108ce5760405162461bcd60e51b815260206004820152601760248201527650726f706f73616c206973206e6f742070656e64696e6760481b604482015260640161081c565b6000818152600160205260409020600701544211156108ff5760405162461bcd60e51b815260040161081c906125c9565b6000838152600160209081526040808320338452600c81019092529091205460ff161561096e5760405162461bcd60e51b815260206004820152601e60248201527f416c726561647920617070726f76656420746869732070726f706f73616c0000604482015260640161081c565b60018101546001600160a01b031633036109d65760405162461bcd60e51b8152602060048201526024808201527f50726f706f7365722063616e6e6f7420617070726f7665206f776e2070726f706044820152631bdcd85b60e21b606482015260840161081c565b60008054600283015460018401546040516327bfc1ad60e21b81526001600160a01b0393841693639eff06b493610a1b939082169291169060038801906004016125f7565b60408051808303816000875af1158015610a39573d6000803e3d6000fd5b505050506040513d601f19601f82011682018060405250810190610a5d91906126a0565b50905080610aad5760405162461bcd60e51b815260206004820152601f60248201527f50617469656e7420636f6e73656e74206e6f206c6f6e6765722076616c696400604482015260640161081c565b336000818152600c840160209081526040808320805460ff19166001908117909155600d8701805480830182558186528486200180546001600160a01b031916871790558585526005845282852080549283018155855293839020018990559154600a860154835182815292830152929188917f7989491bc7c1fee580139021c9641f45f658bbfd784956c0a4ebbcc4d983a5af910160405180910390a382600a01548110610b6657600b8301805460ff191660011790555b505050505050565b600c546001600160a01b03163314610b985760405162461bcd60e51b815260040161081c906126d3565b6001600160a01b038116610bee5760405162461bcd60e51b815260206004820152601860248201527f496e76616c696420636f6e747261637420616464726573730000000000000000604482015260640161081c565b600080546001600160a01b0319166001600160a01b0392909216919091179055565b600c546001600160a01b03163314610c3a5760405162461bcd60e51b815260040161081c906126d3565b6001600160a01b0381166000908152600260209081526040808320805460ff1916905560039091528120610c6d91611e16565b50565b6000818152600160208190526040909120015481906001600160a01b0316610caa5760405162461bcd60e51b815260040161081c90612592565b600082815260016020526040902060078101544211610d0b5760405162461bcd60e51b815260206004820152601860248201527f50726f706f73616c206e6f742079657420657870697265640000000000000000604482015260640161081c565b6000600b82015460ff166004811115610d2657610d26611fd0565b14610d6a5760405162461bcd60e51b815260206004820152601460248201527350726f706f73616c206e6f742070656e64696e6760601b604482015260640161081c565b600b8101805460ff1916600417905560405142815283907f33871a59223f267c94edcfe640935dbcfe76073123166425247b96924708043a9060200160405180910390a2505050565b600c546001600160a01b03163314610ddd5760405162461bcd60e51b815260040161081c906126d3565b6001600160a01b038216610e335760405162461bcd60e51b815260206004820152601860248201527f496e76616c696420617070726f76657220616464726573730000000000000000604482015260640161081c565b6001600160a01b0382166000908152600260209081526040808320805460ff1916600117905560039091529020610e6a828261275a565b505050565b60036020526000908152604090208054610e889061251b565b80601f0160208091040260200160405190810160405280929190818152602001828054610eb49061251b565b8015610f015780601f10610ed657610100808354040283529160200191610f01565b820191906000526020600020905b815481529060010190602001808311610ee457829003601f168201915b505050505081565b3360009081526002602052604090205460ff16610f385760405162461bcd60e51b815260040161081c9061254f565b6000828152600160208190526040909120015482906001600160a01b0316610f725760405162461bcd60e51b815260040161081c90612592565b82600080828152600160205260409020600b015460ff166004811115610f9a57610f9a611fd0565b14610fe15760405162461bcd60e51b815260206004820152601760248201527650726f706f73616c206973206e6f742070656e64696e6760481b604482015260640161081c565b6000818152600160205260409020600701544211156110125760405162461bcd60e51b815260040161081c906125c9565b6000848152600160209081526040808320338452600e81019092529091205460ff16156110815760405162461bcd60e51b815260206004820152601e60248201527f416c72656164792072656a656374656420746869732070726f706f73616c0000604482015260640161081c565b60008451116110d25760405162461bcd60e51b815260206004820152601960248201527f52656a656374696f6e20726561736f6e20726571756972656400000000000000604482015260640161081c565b336000818152600e8301602090815260408220805460ff199081166001908117909255600f86018054928301815584529190922090910180546001600160a01b031916909217909155600b82018054909116600317905560108101611137858261275a565b50336001600160a01b0316857f3f48436048484b6ac24206d30802aaeab7eccf22c892843e1aebbd7f1c176ef28660405161117291906121f7565b60405180910390a35050505050565b600c546001600160a01b031633146111ab5760405162461bcd60e51b815260040161081c906126d3565b6040805160a0810182528681526020810186905290810184905260608101839052608001819052600794909455600892909255600955600a55600b55565b60065460609060009067ffffffffffffffff81111561120a5761120a6120f2565b604051908082528060200260200182016040528015611233578160200160208202803683370190505b5090506000805b6006548110156113005784600481111561125657611256611fd0565b600160006006848154811061126d5761126d61281a565b600091825260208083209091015483528201929092526040019020600b015460ff1660048111156112a0576112a0611fd0565b036112ee57600681815481106112b8576112b861281a565b90600052602060002001548383815181106112d5576112d561281a565b6020908102919091010152816112ea81612846565b9250505b806112f881612846565b91505061123a565b5060008167ffffffffffffffff81111561131c5761131c6120f2565b604051908082528060200260200182016040528015611345578160200160208202803683370190505b50905060005b8281101561139c578381815181106113655761136561281a565b602002602001015182828151811061137f5761137f61281a565b60209081029190910101528061139481612846565b91505061134b565b50949350505050565b600681815481106113b557600080fd5b600091825260209091200154905081565b606060016000838152602001908152602001600020600601805480602002602001604051908101604052809291908181526020016000905b828210156114aa57838290600052602060002001805461141d9061251b565b80601f01602080910402602001604051908101604052809291908181526020018280546114499061251b565b80156114965780601f1061146b57610100808354040283529160200191611496565b820191906000526020600020905b81548152906001019060200180831161147957829003601f168201915b5050505050815260200190600101906113fe565b505050509050919050565b6001600160a01b0381166000908152600560209081526040918290208054835181840281018401909452808452606093928301828280156107e157602002820191906000526020600020908154815260200190600101908083116107cd5750505050509050919050565b60008181526001602081905260408220015482906001600160a01b03166115585760405162461bcd60e51b815260040161081c90612592565b600083815260016020819052604090912090600b82015460ff16600481111561158357611583611fd0565b146115c85760405162461bcd60e51b8152602060048201526015602482015274141c9bdc1bdcd85b081b9bdd08185c1c1c9bdd9959605a1b604482015260640161081c565b60018101546001600160a01b03163314806115f257503360009081526002602052604090205460ff165b61163e5760405162461bcd60e51b815260206004820152601960248201527f4e6f7420617574686f72697a656420746f206578656375746500000000000000604482015260640161081c565b80600701544211156116625760405162461bcd60e51b815260040161081c906125c9565b60008054600283015460018401546040516327bfc1ad60e21b81526001600160a01b0393841693639eff06b4936116a7939082169291169060038801906004016125f7565b60408051808303816000875af11580156116c5573d6000803e3d6000fd5b505050506040513d601f19601f820116820180604052508101906116e991906126a0565b509050806117395760405162461bcd60e51b815260206004820152601760248201527f50617469656e7420636f6e73656e74207265766f6b6564000000000000000000604482015260640161081c565b600b8201805460ff19166002179055426009830181905560408051600181526020810192909252339187917fc7689180a9eb98540554b675d67ad83077b40a315072f691cdefad842afbe1fa910160405180910390a36001935050505b50919050565b600060026000838152600160205260409020600b015460ff1660048111156117c6576117c6611fd0565b1492915050565b600060048260078111156117e3576117e3611fd0565b036117f057505060085490565b600582600781111561180457611804611fd0565b0361181157505060095490565b600782600781111561182557611825611fd0565b03611832575050600a5490565b600682600781111561184657611846611fd0565b03611853575050600b5490565b505060075490565b919050565b60008181526001602081905260408220908101546002820154600483015460078401546008850154600a860154600d870154600b8801546003890180548b9a60609a8c9a8c9a8c9a8b9a8b9a8b9a8b9a97996001600160a01b03978816999790961697959660ff9586169660058c0196169088906118dd9061251b565b80601f01602080910402602001604051908101604052809291908181526020018280546119099061251b565b80156119565780601f1061192b57610100808354040283529160200191611956565b820191906000526020600020905b81548152906001019060200180831161193957829003601f168201915b505050505097508580546119699061251b565b80601f01602080910402602001604051908101604052809291908181526020018280546119959061251b565b80156119e25780601f106119b7576101008083540402835291602001916119e2565b820191906000526020600020905b8154815290600101906020018083116119c557829003601f168201915b505050505095509a509a509a509a509a509a509a509a509a509a50509193959799509193959799565b60006001600160a01b038616611a635760405162461bcd60e51b815260206004820152601760248201527f496e76616c69642070617469656e742061646472657373000000000000000000604482015260640161081c565b6000855111611ab45760405162461bcd60e51b815260206004820152601960248201527f4461746120747970652063616e6e6f7420626520656d70747900000000000000604482015260640161081c565b6000835111611afe5760405162461bcd60e51b8152602060048201526016602482015275526561736f6e2063616e6e6f7420626520656d70747960501b604482015260640161081c565b600080546040516327bfc1ad60e21b81526001600160a01b0390911690639eff06b490611b33908a9033908b9060040161285f565b60408051808303816000875af1158015611b51573d6000803e3d6000fd5b505050506040513d601f19601f82011682018060405250810190611b7591906126a0565b50905080611bc55760405162461bcd60e51b815260206004820152601d60248201527f4e6f2076616c696420636f6e73656e742066726f6d2070617469656e74000000604482015260640161081c565b338787864243604051602001611be096959493929190612894565b6040516020818303038152906040528051906020012091506000611c03866117cd565b905060006004876007811115611c1b57611c1b611fd0565b14611c3257600d54611c2d90426128fd565b611c3f565b600e54611c3f90426128fd565b60008581526001602081905260409091208681559081018054336001600160a01b0319918216179091556002820180549091166001600160a01b038d1617905590915060038101611c908a8261275a565b5060048101805489919060ff19166001836007811115611cb257611cb2611fd0565b021790555060058101611cc5888261275a565b508551611cdb9060068301906020890190611e50565b5060078101829055426008820155600a8101839055600b8101805460ff191690556006805460018181019092557ff652222313e28459528d920b65115c16c04f3efc82aaedc97be59f3f377c0d3f01869055336000818152600460209081526040808320805495860181558352912090920187905590516001600160a01b038c16919087907fde82073ae504013325847c68dfd27d7a6c50dee47f984dab7688949e9a2ad50590611d93908e908d9089908b90612910565b60405180910390a45050505095945050505050565b600081815260016020908152604091829020600d018054835181840281018401909452808452606093928301828280156107e157602002820191906000526020600020905b81546001600160a01b03168152600190910190602001808311611ded5750505050509050919050565b508054611e229061251b565b6000825580601f10611e32575050565b601f016020900490600052602060002090810190610c6d9190611ea6565b828054828255906000526020600020908101928215611e96579160200282015b82811115611e965782518290611e86908261275a565b5091602001919060010190611e70565b50611ea2929150611ebb565b5090565b5b80821115611ea25760008155600101611ea7565b80821115611ea2576000611ecf8282611e16565b50600101611ebb565b80356001600160a01b038116811461185b57600080fd5b600060208284031215611f0157600080fd5b611f0a82611ed8565b9392505050565b60008060408385031215611f2457600080fd5b611f2d83611ed8565b946020939093013593505050565b60008060408385031215611f4e57600080fd5b82359150611f5e60208401611ed8565b90509250929050565b600060208284031215611f7957600080fd5b5035919050565b60005b83811015611f9b578181015183820152602001611f83565b50506000910152565b60008151808452611fbc816020860160208601611f80565b601f01601f19169290920160200192915050565b634e487b7160e01b600052602160045260246000fd5b60088110611ff657611ff6611fd0565b9052565b60058110611ff657611ff6611fd0565b8c81526001600160a01b038c811660208301528b1660408201526101806060820181905260009061203d8382018d611fa4565b905061204c608084018c611fe6565b82810360a084015261205e818b611fa4565b90508860c08401528760e08401528661010084015285610120840152612088610140840186611ffa565b82810361016084015261209b8185611fa4565b9f9e505050505050505050505050505050565b6020808252825182820181905260009190848201906040850190845b818110156120e6578351835292840192918401916001016120ca565b50909695505050505050565b634e487b7160e01b600052604160045260246000fd5b604051601f8201601f1916810167ffffffffffffffff81118282101715612131576121316120f2565b604052919050565b600082601f83011261214a57600080fd5b813567ffffffffffffffff811115612164576121646120f2565b612177601f8201601f1916602001612108565b81815284602083860101111561218c57600080fd5b816020850160208301376000918101602001919091529392505050565b600080604083850312156121bc57600080fd5b6121c583611ed8565b9150602083013567ffffffffffffffff8111156121e157600080fd5b6121ed85828601612139565b9150509250929050565b602081526000611f0a6020830184611fa4565b6000806040838503121561221d57600080fd5b82359150602083013567ffffffffffffffff8111156121e157600080fd5b600080600080600060a0868803121561225357600080fd5b505083359560208501359550604085013594606081013594506080013592509050565b60006020828403121561228857600080fd5b813560058110611f0a57600080fd5b6000602080830181845280855180835260408601915060408160051b870101925083870160005b828110156122ec57603f198886030184526122da858351611fa4565b945092850192908501906001016122be565b5092979650505050505050565b80356008811061185b57600080fd5b60006020828403121561231a57600080fd5b611f0a826122f9565b6001600160a01b038b811682528a166020820152610140604082018190526000906123508382018c611fa4565b905061235f606084018b611fe6565b8281036080840152612371818a611fa4565b9150508660a08301528560c08301528460e08301528361010083015261239b610120830184611ffa565b9b9a5050505050505050505050565b600080600080600060a086880312156123c257600080fd5b6123cb86611ed8565b945060208087013567ffffffffffffffff808211156123e957600080fd5b6123f58a838b01612139565b965061240360408a016122f9565b9550606089013591508082111561241957600080fd5b6124258a838b01612139565b9450608089013591508082111561243b57600080fd5b818901915089601f83011261244f57600080fd5b813581811115612461576124616120f2565b8060051b612470858201612108565b918252838101850191858101908d84111561248a57600080fd5b86860192505b838310156124c6578235858111156124a85760008081fd5b6124b68f89838a0101612139565b8352509186019190860190612490565b809750505050505050509295509295909350565b6020808252825182820181905260009190848201906040850190845b818110156120e65783516001600160a01b0316835292840192918401916001016124f6565b600181811c9082168061252f57607f821691505b60208210810361179657634e487b7160e01b600052602260045260246000fd5b60208082526023908201527f4e6f7420617574686f72697a656420746f20617070726f76652070726f706f73604082015262616c7360e81b606082015260800190565b60208082526017908201527f50726f706f73616c20646f6573206e6f74206578697374000000000000000000604082015260600190565b602080825260149082015273141c9bdc1bdcd85b081a185cc8195e1c1a5c995960621b604082015260600190565b6001600160a01b038481168252831660208083019190915260606040830152825460009182916126268161251b565b8060608701526080600180841660008114612648576001811461266257612690565b60ff1985168984015283151560051b890183019650612690565b896000528560002060005b858110156126885781548b820186015290830190870161266d565b8a0184019750505b50949a9950505050505050505050565b600080604083850312156126b357600080fd5b825180151581146126c357600080fd5b6020939093015192949293505050565b60208082526021908201527f4f6e6c792061646d696e2063616e2063616c6c20746869732066756e6374696f6040820152603760f91b606082015260800190565b601f821115610e6a57600081815260208120601f850160051c8101602086101561273b5750805b601f850160051c820191505b81811015610b6657828155600101612747565b815167ffffffffffffffff811115612774576127746120f2565b61278881612782845461251b565b84612714565b602080601f8311600181146127bd57600084156127a55750858301515b600019600386901b1c1916600185901b178555610b66565b600085815260208120601f198616915b828110156127ec578886015182559484019460019091019084016127cd565b508582101561280a5787850151600019600388901b60f8161c191681555b5050505050600190811b01905550565b634e487b7160e01b600052603260045260246000fd5b634e487b7160e01b600052601160045260246000fd5b60006001820161285857612858612830565b5060010190565b6001600160a01b0384811682528316602082015260606040820181905260009061288b90830184611fa4565b95945050505050565b60006bffffffffffffffffffffffff19808960601b168352808860601b1660148401525085516128cb816028850160208a01611f80565b8551908301906128e2816028840160208a01611f80565b01602881019490945250506048820152606801949350505050565b8082018082111561054a5761054a612830565b6080815260006129236080830187611fa4565b82810360208401526129358187611fa4565b60408401959095525050606001529291505056fea2646970667358221220b1734f988639683b44e41c4c16e0d894070ccfe6e12caf489c0012f40106fa5d64736f6c63430008130033",
  "immutableReferences": {},
  "source": "// SPDX-License-Identifier: MIT\r\npragma solidity ^0.8.19;\r\n\r\nimport \"./ConsentManagement.sol\";\r\n\r\n/**\r\n * @title MultiSignatureAccess\r\n * @dev Smart contract for multi-signature access control to medical records\r\n * @author ARCHBTW Team - MedLedger\r\n */\r\ncontract MultiSignatureAccess {\r\n    \r\n    // Reference to ConsentManagement contract\r\n    ConsentManagement public consentContract;\r\n    \r\n    // Events\r\n    event ProposalCreated(\r\n        bytes32 indexed proposalId,\r\n        address indexed proposer,\r\n        address indexed patient,\r\n        string dataType,\r\n        string reason,\r\n        uint256 deadline,\r\n        uint256 requiredSignatures\r\n    );\r\n    \r\n    event ProposalApproved(\r\n        bytes32 indexed proposalId,\r\n        address indexed approver,\r\n        uint256 currentApprovals,\r\n        uint256 requiredSignatures\r\n    );\r\n    \r\n    event ProposalExecuted(\r\n        bytes32 indexed proposalId,\r\n        address indexed executor,\r\n        bool success,\r\n        uint256 executedAt\r\n    );\r\n    \r\n    event ProposalRejected(\r\n        bytes32 indexed proposalId,\r\n        address indexed rejector,\r\n        string reason\r\n    );\r\n    \r\n    event ProposalExpired(\r\n        bytes32 indexed proposalId,\r\n        uint256 expiredAt\r\n    );\r\n    \r\n    // Enums\r\n    enum ProposalStatus { \r\n        Pending,        // Waiting for approvals\r\n        Approved,       // Enough signatures collected\r\n        Executed,       // Successfully executed\r\n        Rejected,       // Explicitly rejected\r\n        Expired         // Deadline passed\r\n    }\r\n    \r\n    enum AccessType {\r\n        Read,           // Read medical records\r\n        Write,          // Add new records\r\n        Update,         // Modify existing records\r\n        Delete,         // Remove records (rare)\r\n        Emergency,      // Emergency access (reduced signatures)\r\n        Research,       // Research data access\r\n        Insurance,      // Insurance claim access\r\n        Legal           // Legal/court ordered access\r\n    }\r\n    \r\n    // Structs\r\n    struct Proposal {\r\n        bytes32 proposalId;\r\n        address proposer;\r\n        address patient;\r\n        string dataType;\r\n        AccessType accessType;\r\n        string reason;\r\n        string[] ipfsHashes;        // Records to access\r\n        uint256 deadline;\r\n        uint256 createdAt;\r\n        uint256 executedAt;\r\n        uint256 requiredSignatures;\r\n        ProposalStatus status;\r\n        mapping(address => bool) hasApproved;\r\n        address[] approvers;\r\n        mapping(address => bool) hasRejected;\r\n        address[] rejectors;\r\n        string rejectionReason;\r\n    }\r\n    \r\n    struct SignatureRequirement {\r\n        uint256 standardAccess;     // Normal record access\r\n        uint256 emergencyAccess;    // Emergency situations\r\n        uint256 researchAccess;     // Research data\r\n        uint256 legalAccess;        // Legal/court orders\r\n        uint256 insuranceAccess;    // Insurance claims\r\n    }\r\n    \r\n    // Mappings\r\n    mapping(bytes32 => Proposal) public proposals;\r\n    mapping(address => bool) public authorizedApprovers;\r\n    mapping(address => string) public approverRoles;\r\n    mapping(address => bytes32[]) public proposerHistory;\r\n    mapping(address => bytes32[]) public approverHistory;\r\n    \r\n    // State variables\r\n    bytes32[] public allProposalIds;\r\n    SignatureRequirement public signatureRequirements;\r\n    address public admin;\r\n    uint256 public defaultDeadline = 24 hours;\r\n    uint256 public emergencyDeadline = 2 hours;\r\n    \r\n    // Modifiers\r\n    modifier onlyAdmin() {\r\n        require(msg.sender == admin, \"Only admin can call this function\");\r\n        _;\r\n    }\r\n    \r\n    modifier onlyAuthorizedApprover() {\r\n        require(authorizedApprovers[msg.sender], \"Not authorized to approve proposals\");\r\n        _;\r\n    }\r\n    \r\n    modifier proposalExists(bytes32 _proposalId) {\r\n        require(proposals[_proposalId].proposer != address(0), \"Proposal does not exist\");\r\n        _;\r\n    }\r\n    \r\n    modifier proposalPending(bytes32 _proposalId) {\r\n        require(proposals[_proposalId].status == ProposalStatus.Pending, \"Proposal is not pending\");\r\n        require(block.timestamp <= proposals[_proposalId].deadline, \"Proposal has expired\");\r\n        _;\r\n    }\r\n    \r\n    // Constructor\r\n    constructor(address _consentContractAddress) {\r\n        admin = msg.sender;\r\n        consentContract = ConsentManagement(_consentContractAddress);\r\n        \r\n        // Set default signature requirements\r\n        signatureRequirements = SignatureRequirement({\r\n            standardAccess: 3,      // 3 signatures for normal access\r\n            emergencyAccess: 2,     // 2 signatures for emergency\r\n            researchAccess: 4,      // 4 signatures for research\r\n            legalAccess: 2,         // 2 signatures for legal (court orders)\r\n            insuranceAccess: 3      // 3 signatures for insurance\r\n        });\r\n        \r\n        // Admin is automatically an authorized approver\r\n        authorizedApprovers[admin] = true;\r\n        approverRoles[admin] = \"Administrator\";\r\n    }\r\n    \r\n    /**\r\n     * @dev Add an authorized approver\r\n     */\r\n    function addApprover(address _approver, string memory _role) external onlyAdmin {\r\n        require(_approver != address(0), \"Invalid approver address\");\r\n        authorizedApprovers[_approver] = true;\r\n        approverRoles[_approver] = _role;\r\n    }\r\n    \r\n    /**\r\n     * @dev Remove an authorized approver\r\n     */\r\n    function removeApprover(address _approver) external onlyAdmin {\r\n        authorizedApprovers[_approver] = false;\r\n        delete approverRoles[_approver];\r\n    }\r\n    \r\n    /**\r\n     * @dev Update signature requirements\r\n     */\r\n    function updateSignatureRequirements(\r\n        uint256 _standard,\r\n        uint256 _emergency,\r\n        uint256 _research,\r\n        uint256 _legal,\r\n        uint256 _insurance\r\n    ) external onlyAdmin {\r\n        signatureRequirements = SignatureRequirement({\r\n            standardAccess: _standard,\r\n            emergencyAccess: _emergency,\r\n            researchAccess: _research,\r\n            legalAccess: _legal,\r\n            insuranceAccess: _insurance\r\n        });\r\n    }\r\n    \r\n    /**\r\n     * @dev Propose access to medical records\r\n     */\r\n    function proposeAction(\r\n        address _patient,\r\n        string memory _dataType,\r\n        AccessType _accessType,\r\n        string memory _reason,\r\n        string[] memory _ipfsHashes\r\n    ) external returns (bytes32 proposalId) {\r\n        require(_patient != address(0), \"Invalid patient address\");\r\n        require(bytes(_dataType).length > 0, \"Data type cannot be empty\");\r\n        require(bytes(_reason).length > 0, \"Reason cannot be empty\");\r\n        \r\n        // Check if proposer has basic consent from patient\r\n        (bool hasConsent,) = consentContract.checkConsent(_patient, msg.sender, _dataType);\r\n        require(hasConsent, \"No valid consent from patient\");\r\n        \r\n        // Generate unique proposal ID\r\n        proposalId = keccak256(\r\n            abi.encodePacked(\r\n                msg.sender,\r\n                _patient,\r\n                _dataType,\r\n                _reason,\r\n                block.timestamp,\r\n                block.number\r\n            )\r\n        );\r\n        \r\n        // Determine required signatures and deadline based on access type\r\n        uint256 requiredSigs = getRequiredSignatures(_accessType);\r\n        uint256 deadline = _accessType == AccessType.Emergency ? \r\n            block.timestamp + emergencyDeadline : \r\n            block.timestamp + defaultDeadline;\r\n        \r\n        // Create proposal\r\n        Proposal storage proposal = proposals[proposalId];\r\n        proposal.proposalId = proposalId;\r\n        proposal.proposer = msg.sender;\r\n        proposal.patient = _patient;\r\n        proposal.dataType = _dataType;\r\n        proposal.accessType = _accessType;\r\n        proposal.reason = _reason;\r\n        proposal.ipfsHashes = _ipfsHashes;\r\n        proposal.deadline = deadline;\r\n        proposal.createdAt = block.timestamp;\r\n        proposal.requiredSignatures = requiredSigs;\r\n        proposal.status = ProposalStatus.Pending;\r\n        \r\n        // Track proposal\r\n        allProposalIds.push(proposalId);\r\n        proposerHistory[msg.sender].push(proposalId);\r\n        \r\n        emit ProposalCreated(\r\n            proposalId,\r\n            msg.sender,\r\n            _patient,\r\n            _dataType,\r\n            _reason,\r\n            deadline,\r\n            requiredSigs\r\n        );\r\n        \r\n        return proposalId;\r\n    }\r\n    \r\n    /**\r\n     * @dev Approve a proposal\r\n     */\r\n    function approveAction(bytes32 _proposalId) \r\n        external \r\n        onlyAuthorizedApprover \r\n        proposalExists(_proposalId) \r\n        proposalPending(_proposalId) \r\n    {\r\n        Proposal storage proposal = proposals[_proposalId];\r\n        \r\n        require(!proposal.hasApproved[msg.sender], \"Already approved this proposal\");\r\n        require(msg.sender != proposal.proposer, \"Proposer cannot approve own proposal\");\r\n        \r\n        // Verify patient consent is still valid\r\n        (bool hasConsent,) = consentContract.checkConsent(\r\n            proposal.patient, \r\n            proposal.proposer, \r\n            proposal.dataType\r\n        );\r\n        require(hasConsent, \"Patient consent no longer valid\");\r\n        \r\n        // Record approval\r\n        proposal.hasApproved[msg.sender] = true;\r\n        proposal.approvers.push(msg.sender);\r\n        approverHistory[msg.sender].push(_proposalId);\r\n        \r\n        uint256 currentApprovals = proposal.approvers.length;\r\n        \r\n        emit ProposalApproved(\r\n            _proposalId,\r\n            msg.sender,\r\n            currentApprovals,\r\n            proposal.requiredSignatures\r\n        );\r\n        \r\n        // Check if enough signatures collected\r\n        if (currentApprovals >= proposal.requiredSignatures) {\r\n            proposal.status = ProposalStatus.Approved;\r\n        }\r\n    }\r\n    \r\n    /**\r\n     * @dev Reject a proposal\r\n     */\r\n    function rejectAction(bytes32 _proposalId, string memory _reason) \r\n        external \r\n        onlyAuthorizedApprover \r\n        proposalExists(_proposalId) \r\n        proposalPending(_proposalId) \r\n    {\r\n        Proposal storage proposal = proposals[_proposalId];\r\n        \r\n        require(!proposal.hasRejected[msg.sender], \"Already rejected this proposal\");\r\n        require(bytes(_reason).length > 0, \"Rejection reason required\");\r\n        \r\n        proposal.hasRejected[msg.sender] = true;\r\n        proposal.rejectors.push(msg.sender);\r\n        proposal.status = ProposalStatus.Rejected;\r\n        proposal.rejectionReason = _reason;\r\n        \r\n        emit ProposalRejected(_proposalId, msg.sender, _reason);\r\n    }\r\n    \r\n    /**\r\n     * @dev Execute an approved proposal\r\n     */\r\n    function executeAction(bytes32 _proposalId) \r\n        external \r\n        proposalExists(_proposalId) \r\n        returns (bool success) \r\n    {\r\n        Proposal storage proposal = proposals[_proposalId];\r\n        \r\n        require(\r\n            proposal.status == ProposalStatus.Approved, \r\n            \"Proposal not approved\"\r\n        );\r\n        require(\r\n            msg.sender == proposal.proposer || authorizedApprovers[msg.sender],\r\n            \"Not authorized to execute\"\r\n        );\r\n        require(\r\n            block.timestamp <= proposal.deadline,\r\n            \"Proposal has expired\"\r\n        );\r\n        \r\n        // Final consent verification\r\n        (bool hasConsent,) = consentContract.checkConsent(\r\n            proposal.patient, \r\n            proposal.proposer, \r\n            proposal.dataType\r\n        );\r\n        require(hasConsent, \"Patient consent revoked\");\r\n        \r\n        // Mark as executed\r\n        proposal.status = ProposalStatus.Executed;\r\n        proposal.executedAt = block.timestamp;\r\n        \r\n        emit ProposalExecuted(_proposalId, msg.sender, true, block.timestamp);\r\n        \r\n        return true;\r\n    }\r\n    \r\n    /**\r\n     * @dev Mark expired proposals\r\n     */\r\n    function markExpired(bytes32 _proposalId) external proposalExists(_proposalId) {\r\n        Proposal storage proposal = proposals[_proposalId];\r\n        \r\n        require(block.timestamp > proposal.deadline, \"Proposal not yet expired\");\r\n        require(proposal.status == ProposalStatus.Pending, \"Proposal not pending\");\r\n        \r\n        proposal.status = ProposalStatus.Expired;\r\n        \r\n        emit ProposalExpired(_proposalId, block.timestamp);\r\n    }\r\n    \r\n    /**\r\n     * @dev Get required signatures for access type\r\n     */\r\n    function getRequiredSignatures(AccessType _accessType) public view returns (uint256) {\r\n        if (_accessType == AccessType.Emergency) {\r\n            return signatureRequirements.emergencyAccess;\r\n        } else if (_accessType == AccessType.Research) {\r\n            return signatureRequirements.researchAccess;\r\n        } else if (_accessType == AccessType.Legal) {\r\n            return signatureRequirements.legalAccess;\r\n        } else if (_accessType == AccessType.Insurance) {\r\n            return signatureRequirements.insuranceAccess;\r\n        } else {\r\n            return signatureRequirements.standardAccess;\r\n        }\r\n    }\r\n    \r\n    /**\r\n     * @dev Get proposal details\r\n     */\r\n    function getProposalDetails(bytes32 _proposalId) external view returns (\r\n        address proposer,\r\n        address patient,\r\n        string memory dataType,\r\n        AccessType accessType,\r\n        string memory reason,\r\n        uint256 deadline,\r\n        uint256 createdAt,\r\n        uint256 requiredSignatures,\r\n        uint256 currentApprovals,\r\n        ProposalStatus status\r\n    ) {\r\n        Proposal storage proposal = proposals[_proposalId];\r\n        return (\r\n            proposal.proposer,\r\n            proposal.patient,\r\n            proposal.dataType,\r\n            proposal.accessType,\r\n            proposal.reason,\r\n            proposal.deadline,\r\n            proposal.createdAt,\r\n            proposal.requiredSignatures,\r\n            proposal.approvers.length,\r\n            proposal.status\r\n        );\r\n    }\r\n    \r\n    /**\r\n     * @dev Get proposal approvers\r\n     */\r\n    function getProposalApprovers(bytes32 _proposalId) external view returns (address[] memory) {\r\n        return proposals[_proposalId].approvers;\r\n    }\r\n    \r\n    /**\r\n     * @dev Get proposal IPFS hashes\r\n     */\r\n    function getProposalIPFSHashes(bytes32 _proposalId) external view returns (string[] memory) {\r\n        return proposals[_proposalId].ipfsHashes;\r\n    }\r\n    \r\n    /**\r\n     * @dev Get all proposals by status\r\n     */\r\n    function getProposalsByStatus(ProposalStatus _status) external view returns (bytes32[] memory) {\r\n        bytes32[] memory result = new bytes32[](allProposalIds.length);\r\n        uint256 count = 0;\r\n        \r\n        for (uint256 i = 0; i < allProposalIds.length; i++) {\r\n            if (proposals[allProposalIds[i]].status == _status) {\r\n                result[count] = allProposalIds[i];\r\n                count++;\r\n            }\r\n        }\r\n        \r\n        // Resize array to actual count\r\n        bytes32[] memory finalResult = new bytes32[](count);\r\n        for (uint256 i = 0; i < count; i++) {\r\n            finalResult[i] = result[i];\r\n        }\r\n        \r\n        return finalResult;\r\n    }\r\n    \r\n    /**\r\n     * @dev Get proposals by proposer\r\n     */\r\n    function getProposalsByProposer(address _proposer) external view returns (bytes32[] memory) {\r\n        return proposerHistory[_proposer];\r\n    }\r\n    \r\n    /**\r\n     * @dev Get proposals approved by an approver\r\n     */\r\n    function getProposalsByApprover(address _approver) external view returns (bytes32[] memory) {\r\n        return approverHistory[_approver];\r\n    }\r\n    \r\n    /**\r\n     * @dev Check if proposal has been approved by specific address\r\n     */\r\n    function hasApproved(bytes32 _proposalId, address _approver) external view returns (bool) {\r\n        return proposals[_proposalId].hasApproved[_approver];\r\n    }\r\n    \r\n    /**\r\n     * @dev Get total number of proposals\r\n     */\r\n    function getTotalProposals() external view returns (uint256) {\r\n        return allProposalIds.length;\r\n    }\r\n    \r\n    /**\r\n     * @dev Get signature requirements\r\n     */\r\n    function getSignatureRequirements() external view returns (\r\n        uint256 standard,\r\n        uint256 emergency,\r\n        uint256 research,\r\n        uint256 legal,\r\n        uint256 insurance\r\n    ) {\r\n        return (\r\n            signatureRequirements.standardAccess,\r\n            signatureRequirements.emergencyAccess,\r\n            signatureRequirements.researchAccess,\r\n            signatureRequirements.legalAccess,\r\n            signatureRequirements.insuranceAccess\r\n        );\r\n    }\r\n    \r\n    /**\r\n     * @dev Check if proposal is executed (helper for other contracts)\r\n     */\r\n    function isProposalExecuted(bytes32 _proposalId) external view returns (bool) {\r\n        return proposals[_proposalId].status == ProposalStatus.Executed;\r\n    }\r\n    \r\n    /**\r\n     * @dev Emergency function to update consent contract address\r\n     */\r\n    function updateConsentContract(address _newConsentContract) external onlyAdmin {\r\n        require(_newConsentContract != address(0), \"Invalid contract address\");\r\n        consentContract = ConsentManagement(_newConsentContract);\r\n    }\r\n}",
  "sourcePath": "C:\\Lohith\\psg\\PULSE\\medledger-contracts\\contracts\\MultiSignatureAccess.sol",
  "compiler": {
    "name": "solc",
    "version": "0.8.19+commit.7dd6d404.Emscripten.clang"
  },
  "schemaVersion": "3.4.16",
  "updatedAt": "2025-08-16T15:19:15.323Z",
  "networkType": "ethereum",
  "devdoc": {
    "author": "ARCHBTW Team - MedLedger",
    "details": "Smart contract for multi-signature access control to medical records",
    "kind": "dev",
    "methods": {
      "addApprover(address,string)": {
        "details": "Add an authorized approver"
      },
      "approveAction(bytes32)": {
        "details": "Approve a proposal"
      },
      "executeAction(bytes32)": {
        "details": "Execute an approved proposal"
      },
      "getProposalApprovers(bytes32)": {
        "details": "Get proposal approvers"
      },
      "getProposalDetails(bytes32)": {
        "details": "Get proposal details"
      },
      "getProposalIPFSHashes(bytes32)": {
        "details": "Get proposal IPFS hashes"
      },
      "getProposalsByApprover(address)": {
        "details": "Get proposals approved by an approver"
      },
      "getProposalsByProposer(address)": {
        "details": "Get proposals by proposer"
      },
      "getProposalsByStatus(uint8)": {
        "details": "Get all proposals by status"
      },
      "getRequiredSignatures(uint8)": {
        "details": "Get required signatures for access type"
      },
      "getSignatureRequirements()": {
        "details": "Get signature requirements"
      },
      "getTotalProposals()": {
        "details": "Get total number of proposals"
      },
      "hasApproved(bytes32,address)": {
        "details": "Check if proposal has been approved by specific address"
      },
      "isProposalExecuted(bytes32)": {
        "details": "Check if proposal is executed (helper for other contracts)"
      },
      "markExpired(bytes32)": {
        "details": "Mark expired proposals"
      },
      "proposeAction(address,string,uint8,string,string[])": {
        "details": "Propose access to medical records"
      },
      "rejectAction(bytes32,string)": {
        "details": "Reject a proposal"
      },
      "removeApprover(address)": {
        "details": "Remove an authorized approver"
      },
      "updateConsentContract(address)": {
        "details": "Emergency function to update consent contract address"
      },
      "updateSignatureRequirements(uint256,uint256,uint256,uint256,uint256)": {
        "details": "Update signature requirements"
      }
    },
    "title": "MultiSignatureAccess",
    "version": 1
  },
  "userdoc": {
    "kind": "user",
    "methods": {},
    "version": 1
  }
}