{
  "contractName": "RecordRegistry",
  "abi": [
    {
      "inputs": [
        {
          "internalType": "address",
          "name": "_consentContractAddress",
          "type": "address"
        },
        {
          "internalType": "address",
          "name": "_multiSigContractAddress",
          "type": "address"
        }
      ],
      "stateMutability": "nonpayable",
      "type": "constructor"
    },
    {
      "anonymous": false,
      "inputs": [
        {
          "indexed": true,
          "internalType": "bytes32",
          "name": "recordId",
          "type": "bytes32"
        },
        {
          "indexed": true,
          "internalType": "address",
          "name": "accessor",
          "type": "address"
        },
        {
          "indexed": true,
          "internalType": "address",
          "name": "patient",
          "type": "address"
        },
        {
          "indexed": false,
          "internalType": "string",
          "name": "accessReason",
          "type": "string"
        },
        {
          "indexed": false,
          "internalType": "uint256",
          "name": "timestamp",
          "type": "uint256"
        },
        {
          "indexed": false,
          "internalType": "bytes32",
          "name": "multiSigProposalId",
          "type": "bytes32"
        }
      ],
      "name": "RecordAccessed",
      "type": "event"
    },
    {
      "anonymous": false,
      "inputs": [
        {
          "indexed": true,
          "internalType": "bytes32",
          "name": "recordId",
          "type": "bytes32"
        },
        {
          "indexed": true,
          "internalType": "address",
          "name": "deleter",
          "type": "address"
        },
        {
          "indexed": false,
          "internalType": "string",
          "name": "deleteReason",
          "type": "string"
        },
        {
          "indexed": false,
          "internalType": "uint256",
          "name": "timestamp",
          "type": "uint256"
        }
      ],
      "name": "RecordDeleted",
      "type": "event"
    },
    {
      "anonymous": false,
      "inputs": [
        {
          "indexed": true,
          "internalType": "bytes32",
          "name": "recordId",
          "type": "bytes32"
        },
        {
          "indexed": true,
          "internalType": "address",
          "name": "patient",
          "type": "address"
        },
        {
          "indexed": true,
          "internalType": "address",
          "name": "provider",
          "type": "address"
        },
        {
          "indexed": false,
          "internalType": "string",
          "name": "dataType",
          "type": "string"
        },
        {
          "indexed": false,
          "internalType": "string",
          "name": "ipfsHash",
          "type": "string"
        },
        {
          "indexed": false,
          "internalType": "uint256",
          "name": "timestamp",
          "type": "uint256"
        },
        {
          "indexed": false,
          "internalType": "bool",
          "name": "encrypted",
          "type": "bool"
        }
      ],
      "name": "RecordRegistered",
      "type": "event"
    },
    {
      "anonymous": false,
      "inputs": [
        {
          "indexed": true,
          "internalType": "bytes32",
          "name": "recordId",
          "type": "bytes32"
        },
        {
          "indexed": true,
          "internalType": "address",
          "name": "patient",
          "type": "address"
        },
        {
          "indexed": true,
          "internalType": "address",
          "name": "sharedWith",
          "type": "address"
        },
        {
          "indexed": false,
          "internalType": "uint256",
          "name": "shareExpiry",
          "type": "uint256"
        },
        {
          "indexed": false,
          "internalType": "string",
          "name": "shareReason",
          "type": "string"
        }
      ],
      "name": "RecordShared",
      "type": "event"
    },
    {
      "anonymous": false,
      "inputs": [
        {
          "indexed": true,
          "internalType": "bytes32",
          "name": "recordId",
          "type": "bytes32"
        },
        {
          "indexed": true,
          "internalType": "address",
          "name": "updater",
          "type": "address"
        },
        {
          "indexed": false,
          "internalType": "string",
          "name": "newIpfsHash",
          "type": "string"
        },
        {
          "indexed": false,
          "internalType": "string",
          "name": "updateReason",
          "type": "string"
        },
        {
          "indexed": false,
          "internalType": "uint256",
          "name": "version",
          "type": "uint256"
        },
        {
          "indexed": false,
          "internalType": "uint256",
          "name": "timestamp",
          "type": "uint256"
        }
      ],
      "name": "RecordUpdated",
      "type": "event"
    },
    {
      "anonymous": false,
      "inputs": [
        {
          "indexed": true,
          "internalType": "bytes32",
          "name": "originalRecordId",
          "type": "bytes32"
        },
        {
          "indexed": true,
          "internalType": "bytes32",
          "name": "newVersionId",
          "type": "bytes32"
        },
        {
          "indexed": false,
          "internalType": "uint256",
          "name": "versionNumber",
          "type": "uint256"
        },
        {
          "indexed": true,
          "internalType": "address",
          "name": "creator",
          "type": "address"
        }
      ],
      "name": "RecordVersionCreated",
      "type": "event"
    },
    {
      "inputs": [],
      "name": "admin",
      "outputs": [
        {
          "internalType": "address",
          "name": "",
          "type": "address"
        }
      ],
      "stateMutability": "view",
      "type": "function",
      "constant": true
    },
    {
      "inputs": [
        {
          "internalType": "uint256",
          "name": "",
          "type": "uint256"
        }
      ],
      "name": "allRecordIds",
      "outputs": [
        {
          "internalType": "bytes32",
          "name": "",
          "type": "bytes32"
        }
      ],
      "stateMutability": "view",
      "type": "function",
      "constant": true
    },
    {
      "inputs": [
        {
          "internalType": "address",
          "name": "",
          "type": "address"
        }
      ],
      "name": "authorizedProviders",
      "outputs": [
        {
          "internalType": "bool",
          "name": "",
          "type": "bool"
        }
      ],
      "stateMutability": "view",
      "type": "function",
      "constant": true
    },
    {
      "inputs": [],
      "name": "consentContract",
      "outputs": [
        {
          "internalType": "contract ConsentManagement",
          "name": "",
          "type": "address"
        }
      ],
      "stateMutability": "view",
      "type": "function",
      "constant": true
    },
    {
      "inputs": [],
      "name": "emergencyAccessWindow",
      "outputs": [
        {
          "internalType": "uint256",
          "name": "",
          "type": "uint256"
        }
      ],
      "stateMutability": "view",
      "type": "function",
      "constant": true
    },
    {
      "inputs": [
        {
          "internalType": "string",
          "name": "",
          "type": "string"
        }
      ],
      "name": "ipfsHashToRecordId",
      "outputs": [
        {
          "internalType": "bytes32",
          "name": "",
          "type": "bytes32"
        }
      ],
      "stateMutability": "view",
      "type": "function",
      "constant": true
    },
    {
      "inputs": [],
      "name": "multiSigContract",
      "outputs": [
        {
          "internalType": "contract MultiSignatureAccess",
          "name": "",
          "type": "address"
        }
      ],
      "stateMutability": "view",
      "type": "function",
      "constant": true
    },
    {
      "inputs": [
        {
          "internalType": "address",
          "name": "",
          "type": "address"
        },
        {
          "internalType": "uint256",
          "name": "",
          "type": "uint256"
        }
      ],
      "name": "patientRecords",
      "outputs": [
        {
          "internalType": "bytes32",
          "name": "",
          "type": "bytes32"
        }
      ],
      "stateMutability": "view",
      "type": "function",
      "constant": true
    },
    {
      "inputs": [
        {
          "internalType": "address",
          "name": "",
          "type": "address"
        }
      ],
      "name": "providerNames",
      "outputs": [
        {
          "internalType": "string",
          "name": "",
          "type": "string"
        }
      ],
      "stateMutability": "view",
      "type": "function",
      "constant": true
    },
    {
      "inputs": [
        {
          "internalType": "address",
          "name": "",
          "type": "address"
        },
        {
          "internalType": "uint256",
          "name": "",
          "type": "uint256"
        }
      ],
      "name": "providerRecords",
      "outputs": [
        {
          "internalType": "bytes32",
          "name": "",
          "type": "bytes32"
        }
      ],
      "stateMutability": "view",
      "type": "function",
      "constant": true
    },
    {
      "inputs": [
        {
          "internalType": "bytes32",
          "name": "",
          "type": "bytes32"
        },
        {
          "internalType": "uint256",
          "name": "",
          "type": "uint256"
        }
      ],
      "name": "recordAccessHistory",
      "outputs": [
        {
          "internalType": "address",
          "name": "accessor",
          "type": "address"
        },
        {
          "internalType": "uint256",
          "name": "accessTime",
          "type": "uint256"
        },
        {
          "internalType": "string",
          "name": "reason",
          "type": "string"
        },
        {
          "internalType": "bytes32",
          "name": "multiSigProposalId",
          "type": "bytes32"
        },
        {
          "internalType": "bool",
          "name": "wasEmergencyAccess",
          "type": "bool"
        }
      ],
      "stateMutability": "view",
      "type": "function",
      "constant": true
    },
    {
      "inputs": [
        {
          "internalType": "bytes32",
          "name": "",
          "type": "bytes32"
        },
        {
          "internalType": "uint256",
          "name": "",
          "type": "uint256"
        }
      ],
      "name": "recordShares",
      "outputs": [
        {
          "internalType": "address",
          "name": "sharedWith",
          "type": "address"
        },
        {
          "internalType": "uint256",
          "name": "sharedAt",
          "type": "uint256"
        },
        {
          "internalType": "uint256",
          "name": "expiresAt",
          "type": "uint256"
        },
        {
          "internalType": "string",
          "name": "reason",
          "type": "string"
        },
        {
          "internalType": "bool",
          "name": "isActive",
          "type": "bool"
        }
      ],
      "stateMutability": "view",
      "type": "function",
      "constant": true
    },
    {
      "inputs": [
        {
          "internalType": "bytes32",
          "name": "",
          "type": "bytes32"
        }
      ],
      "name": "records",
      "outputs": [
        {
          "internalType": "bytes32",
          "name": "recordId",
          "type": "bytes32"
        },
        {
          "internalType": "address",
          "name": "patient",
          "type": "address"
        },
        {
          "internalType": "address",
          "name": "provider",
          "type": "address"
        },
        {
          "internalType": "string",
          "name": "dataType",
          "type": "string"
        },
        {
          "internalType": "enum RecordRegistry.RecordType",
          "name": "recordType",
          "type": "uint8"
        },
        {
          "internalType": "string",
          "name": "ipfsHash",
          "type": "string"
        },
        {
          "internalType": "string",
          "name": "encryptionKey",
          "type": "string"
        },
        {
          "internalType": "string",
          "name": "metadata",
          "type": "string"
        },
        {
          "internalType": "uint256",
          "name": "createdAt",
          "type": "uint256"
        },
        {
          "internalType": "uint256",
          "name": "lastModified",
          "type": "uint256"
        },
        {
          "internalType": "uint256",
          "name": "version",
          "type": "uint256"
        },
        {
          "internalType": "enum RecordRegistry.RecordStatus",
          "name": "status",
          "type": "uint8"
        },
        {
          "internalType": "bool",
          "name": "isEncrypted",
          "type": "bool"
        },
        {
          "internalType": "bool",
          "name": "isEmergencyAccessible",
          "type": "bool"
        }
      ],
      "stateMutability": "view",
      "type": "function",
      "constant": true
    },
    {
      "inputs": [
        {
          "internalType": "string",
          "name": "",
          "type": "string"
        },
        {
          "internalType": "uint256",
          "name": "",
          "type": "uint256"
        }
      ],
      "name": "recordsByType",
      "outputs": [
        {
          "internalType": "bytes32",
          "name": "",
          "type": "bytes32"
        }
      ],
      "stateMutability": "view",
      "type": "function",
      "constant": true
    },
    {
      "inputs": [],
      "name": "totalRecords",
      "outputs": [
        {
          "internalType": "uint256",
          "name": "",
          "type": "uint256"
        }
      ],
      "stateMutability": "view",
      "type": "function",
      "constant": true
    },
    {
      "inputs": [
        {
          "internalType": "address",
          "name": "_provider",
          "type": "address"
        },
        {
          "internalType": "string",
          "name": "_name",
          "type": "string"
        }
      ],
      "name": "addProvider",
      "outputs": [],
      "stateMutability": "nonpayable",
      "type": "function"
    },
    {
      "inputs": [
        {
          "internalType": "address",
          "name": "_provider",
          "type": "address"
        }
      ],
      "name": "removeProvider",
      "outputs": [],
      "stateMutability": "nonpayable",
      "type": "function"
    },
    {
      "inputs": [
        {
          "internalType": "address",
          "name": "_patient",
          "type": "address"
        },
        {
          "internalType": "string",
          "name": "_dataType",
          "type": "string"
        },
        {
          "internalType": "enum RecordRegistry.RecordType",
          "name": "_recordType",
          "type": "uint8"
        },
        {
          "internalType": "string",
          "name": "_ipfsHash",
          "type": "string"
        },
        {
          "internalType": "string",
          "name": "_metadata",
          "type": "string"
        },
        {
          "internalType": "bool",
          "name": "_isEncrypted",
          "type": "bool"
        },
        {
          "internalType": "string",
          "name": "_encryptionKey",
          "type": "string"
        },
        {
          "internalType": "bool",
          "name": "_isEmergencyAccessible",
          "type": "bool"
        }
      ],
      "name": "registerRecord",
      "outputs": [
        {
          "internalType": "bytes32",
          "name": "recordId",
          "type": "bytes32"
        }
      ],
      "stateMutability": "nonpayable",
      "type": "function"
    },
    {
      "inputs": [
        {
          "internalType": "bytes32",
          "name": "_recordId",
          "type": "bytes32"
        },
        {
          "internalType": "string",
          "name": "_reason",
          "type": "string"
        },
        {
          "internalType": "bytes32",
          "name": "_multiSigProposalId",
          "type": "bytes32"
        }
      ],
      "name": "accessRecord",
      "outputs": [
        {
          "internalType": "string",
          "name": "ipfsHash",
          "type": "string"
        },
        {
          "internalType": "string",
          "name": "encryptionKey",
          "type": "string"
        }
      ],
      "stateMutability": "nonpayable",
      "type": "function"
    },
    {
      "inputs": [
        {
          "internalType": "bytes32",
          "name": "_recordId",
          "type": "bytes32"
        },
        {
          "internalType": "string",
          "name": "_newIpfsHash",
          "type": "string"
        },
        {
          "internalType": "string",
          "name": "_updateReason",
          "type": "string"
        },
        {
          "internalType": "string",
          "name": "_newMetadata",
          "type": "string"
        },
        {
          "internalType": "string",
          "name": "_newEncryptionKey",
          "type": "string"
        }
      ],
      "name": "updateRecord",
      "outputs": [],
      "stateMutability": "nonpayable",
      "type": "function"
    },
    {
      "inputs": [
        {
          "internalType": "bytes32",
          "name": "_recordId",
          "type": "bytes32"
        },
        {
          "internalType": "string",
          "name": "_deleteReason",
          "type": "string"
        }
      ],
      "name": "deleteRecord",
      "outputs": [],
      "stateMutability": "nonpayable",
      "type": "function"
    },
    {
      "inputs": [
        {
          "internalType": "bytes32",
          "name": "_recordId",
          "type": "bytes32"
        },
        {
          "internalType": "address",
          "name": "_sharedWith",
          "type": "address"
        },
        {
          "internalType": "uint256",
          "name": "_expiryDuration",
          "type": "uint256"
        },
        {
          "internalType": "string",
          "name": "_shareReason",
          "type": "string"
        }
      ],
      "name": "shareRecord",
      "outputs": [],
      "stateMutability": "nonpayable",
      "type": "function"
    },
    {
      "inputs": [
        {
          "internalType": "address",
          "name": "_patient",
          "type": "address"
        },
        {
          "internalType": "string",
          "name": "_dataType",
          "type": "string"
        }
      ],
      "name": "getPatientRecords",
      "outputs": [
        {
          "internalType": "bytes32[]",
          "name": "",
          "type": "bytes32[]"
        }
      ],
      "stateMutability": "view",
      "type": "function",
      "constant": true
    },
    {
      "inputs": [
        {
          "internalType": "bytes32",
          "name": "_recordId",
          "type": "bytes32"
        }
      ],
      "name": "getRecordDetails",
      "outputs": [
        {
          "internalType": "address",
          "name": "patient",
          "type": "address"
        },
        {
          "internalType": "address",
          "name": "provider",
          "type": "address"
        },
        {
          "internalType": "string",
          "name": "dataType",
          "type": "string"
        },
        {
          "internalType": "enum RecordRegistry.RecordType",
          "name": "recordType",
          "type": "uint8"
        },
        {
          "internalType": "string",
          "name": "metadata",
          "type": "string"
        },
        {
          "internalType": "uint256",
          "name": "createdAt",
          "type": "uint256"
        },
        {
          "internalType": "uint256",
          "name": "lastModified",
          "type": "uint256"
        },
        {
          "internalType": "uint256",
          "name": "version",
          "type": "uint256"
        },
        {
          "internalType": "enum RecordRegistry.RecordStatus",
          "name": "status",
          "type": "uint8"
        },
        {
          "internalType": "bool",
          "name": "isEncrypted",
          "type": "bool"
        },
        {
          "internalType": "bool",
          "name": "isEmergencyAccessible",
          "type": "bool"
        }
      ],
      "stateMutability": "view",
      "type": "function",
      "constant": true
    },
    {
      "inputs": [
        {
          "internalType": "bytes32",
          "name": "_recordId",
          "type": "bytes32"
        }
      ],
      "name": "getRecordAccessHistory",
      "outputs": [
        {
          "internalType": "address[]",
          "name": "accessors",
          "type": "address[]"
        },
        {
          "internalType": "uint256[]",
          "name": "accessTimes",
          "type": "uint256[]"
        },
        {
          "internalType": "string[]",
          "name": "reasons",
          "type": "string[]"
        }
      ],
      "stateMutability": "view",
      "type": "function",
      "constant": true
    },
    {
      "inputs": [
        {
          "internalType": "string",
          "name": "_ipfsHash",
          "type": "string"
        }
      ],
      "name": "getRecordByIPFSHash",
      "outputs": [
        {
          "internalType": "bytes32",
          "name": "recordId",
          "type": "bytes32"
        }
      ],
      "stateMutability": "view",
      "type": "function",
      "constant": true
    },
    {
      "inputs": [
        {
          "internalType": "enum RecordRegistry.RecordStatus",
          "name": "_status",
          "type": "uint8"
        }
      ],
      "name": "getRecordsByStatus",
      "outputs": [
        {
          "internalType": "bytes32[]",
          "name": "",
          "type": "bytes32[]"
        }
      ],
      "stateMutability": "view",
      "type": "function",
      "constant": true
    },
    {
      "inputs": [
        {
          "internalType": "bytes32",
          "name": "_recordId",
          "type": "bytes32"
        }
      ],
      "name": "getRecordShares",
      "outputs": [
        {
          "internalType": "address[]",
          "name": "sharedWith",
          "type": "address[]"
        },
        {
          "internalType": "uint256[]",
          "name": "sharedAt",
          "type": "uint256[]"
        },
        {
          "internalType": "uint256[]",
          "name": "expiresAt",
          "type": "uint256[]"
        },
        {
          "internalType": "bool[]",
          "name": "isActive",
          "type": "bool[]"
        }
      ],
      "stateMutability": "view",
      "type": "function",
      "constant": true
    },
    {
      "inputs": [],
      "name": "getTotalRecords",
      "outputs": [
        {
          "internalType": "uint256",
          "name": "",
          "type": "uint256"
        }
      ],
      "stateMutability": "view",
      "type": "function",
      "constant": true
    },
    {
      "inputs": [
        {
          "internalType": "bytes32",
          "name": "_recordId",
          "type": "bytes32"
        },
        {
          "internalType": "address",
          "name": "_viewer",
          "type": "address"
        }
      ],
      "name": "isAuthorizedToView",
      "outputs": [
        {
          "internalType": "bool",
          "name": "",
          "type": "bool"
        }
      ],
      "stateMutability": "view",
      "type": "function",
      "constant": true
    },
    {
      "inputs": [
        {
          "internalType": "address",
          "name": "_newConsentContract",
          "type": "address"
        },
        {
          "internalType": "address",
          "name": "_newMultiSigContract",
          "type": "address"
        }
      ],
      "name": "updateContractReferences",
      "outputs": [],
      "stateMutability": "nonpayable",
      "type": "function"
    },
    {
      "inputs": [
        {
          "internalType": "uint256",
          "name": "_windowInSeconds",
          "type": "uint256"
        }
      ],
      "name": "setEmergencyAccessWindow",
      "outputs": [],
      "stateMutability": "nonpayable",
      "type": "function"
    }
  ],
  "bytecode": "0x608060405262015180600e553480156200001857600080fd5b5060405162003d4c38038062003d4c8339810160408190526200003b91620000ff565b600c8054336001600160a01b0319918216811783556000805483166001600160a01b0387811691909117825560018054909416868216178455918152600a60209081526040808320805460ff191690951790945583518085018552601481527f53797374656d2041646d696e6973747261746f720000000000000000000000008183015294549092168152600b9091522090620000d99082620001dc565b505050620002a8565b80516001600160a01b0381168114620000fa57600080fd5b919050565b600080604083850312156200011357600080fd5b6200011e83620000e2565b91506200012e60208401620000e2565b90509250929050565b634e487b7160e01b600052604160045260246000fd5b600181811c908216806200016257607f821691505b6020821081036200018357634e487b7160e01b600052602260045260246000fd5b50919050565b601f821115620001d757600081815260208120601f850160051c81016020861015620001b25750805b601f850160051c820191505b81811015620001d357828155600101620001be565b5050505b505050565b81516001600160401b03811115620001f857620001f862000137565b62000210816200020984546200014d565b8462000189565b602080601f8311600181146200024857600084156200022f5750858301515b600019600386901b1c1916600185901b178555620001d3565b600085815260208120601f198616915b82811015620002795788860151825594840194600190910190840162000258565b5085821015620002985787850151600019600388901b60f8161c191681555b5050505050600190811b01905550565b613a9480620002b86000396000f3fe608060405234801561001057600080fd5b50600436106101f05760003560e01c80638faaefc81161010f578063d108d1b0116100a2578063f4338d0411610071578063f4338d04146104da578063f8219385146104fc578063f851a4401461050f578063fc0005001461052257600080fd5b8063d108d1b01461048a578063d27bf92a1461049d578063d8c622bb146104a6578063ddfb7489146104c757600080fd5b80639d4de296116100de5780639d4de2961461042d578063c39fca7d14610451578063c7c038d614610464578063cb502f301461047757600080fd5b80638faaefc8146103b95780638feaeac9146103e457806394f0df61146103f7578063988a02a01461040a57600080fd5b806331a5240e1161018757806369dc3ae21161015657806369dc3ae21461035057806373e7ae2e1461037357806388f299dd146103865780638a355a57146103a657600080fd5b806331a5240e146102d65780633dd390b2146102f657806359fbef7d1461030957806362a8cb0a1461032c57600080fd5b8063125f8974116101c3578063125f89741461027a5780632cfebe52146102835780632e851b0b146102ae578063308969e7146102c357600080fd5b806301e64725146101f55780630aeacb5e1461022b5780630f0a0a741461023d57806310ff362d14610250575b600080fd5b610208610203366004612b5b565b610535565b6040516102229e9d9c9b9a99989796959493929190612bfe565b60405180910390f35b600d545b604051908152602001610222565b61022f61024b366004612ce3565b6107dc565b61026361025e366004612b5b565b61080d565b6040516102229b9a99989796959493929190612d0d565b61022f600d5481565b61022f610291366004612e40565b805160208183018101805160088252928201919093012091525481565b6102c16102bc366004612e7c565b610a13565b005b6102c16102d1366004612b5b565b610d20565b6102e96102e4366004612f32565b610d4f565b6040516102229190612f5a565b61022f610304366004612b5b565b610f09565b61031c610317366004612f9e565b610f2a565b6040519015158152602001610222565b61033f61033a366004612fca565b611082565b604051610222959493929190612fec565b61031c61035e36600461302c565b600a6020526000908152604090205460ff1681565b6102e9610381366004613047565b611168565b61039961039436600461302c565b6113a8565b6040516102229190613094565b6102c16103b436600461302c565b611442565b6001546103cc906001600160a01b031681565b6040516001600160a01b039091168152602001610222565b61022f6103f23660046130cf565b6114a2565b61022f610405366004612ce3565b6118bc565b61041d610418366004612b5b565b6118d8565b6040516102229493929190613232565b61044061043b366004612fca565b611bd2565b6040516102229594939291906132b2565b6102c161045f3660046132f3565b611cb7565b6000546103cc906001600160a01b031681565b61022f610485366004612e40565b611d3b565b61022f61049836600461331d565b611d63565b61022f600e5481565b6104b96104b4366004613361565b611d8e565b6040516102229291906133b0565b6102c16104d53660046133de565b61231d565b6104ed6104e8366004612b5b565b612463565b6040516102229392919061340e565b6102c161050a366004613495565b61272c565b600c546103cc906001600160a01b031681565b6102c1610530366004613047565b612a51565b6002602081905260009182526040909120805460018201549282015460038301805492946001600160a01b0390811694921692610571906134f5565b80601f016020809104026020016040519081016040528092919081815260200182805461059d906134f5565b80156105ea5780601f106105bf576101008083540402835291602001916105ea565b820191906000526020600020905b8154815290600101906020018083116105cd57829003601f168201915b5050506004840154600585018054949560ff90921694919350915061060e906134f5565b80601f016020809104026020016040519081016040528092919081815260200182805461063a906134f5565b80156106875780601f1061065c57610100808354040283529160200191610687565b820191906000526020600020905b81548152906001019060200180831161066a57829003601f168201915b50505050509080600601805461069c906134f5565b80601f01602080910402602001604051908101604052809291908181526020018280546106c8906134f5565b80156107155780601f106106ea57610100808354040283529160200191610715565b820191906000526020600020905b8154815290600101906020018083116106f857829003601f168201915b50505050509080600701805461072a906134f5565b80601f0160208091040260200160405190810160405280929190818152602001828054610756906134f5565b80156107a35780601f10610778576101008083540402835291602001916107a3565b820191906000526020600020905b81548152906001019060200180831161078657829003601f168201915b5050505060088301546009840154600a850154600b909501549394919390925060ff80821691610100810482169162010000909104168e565b600460205281600052604060002081815481106107f857600080fd5b90600052602060002001600091509150505481565b6000818152600260205260408120600101548190606090829082908290819081908190819081908c906001600160a01b03166108645760405162461bcd60e51b815260040161085b9061352f565b60405180910390fd5b60008d8152600260208190526040909120600181015491810154600482015460088301546009840154600a850154600b86015460038701805497986001600160a01b0390811698971696909560ff9081169560078b0195909490939092818316926101008304811692620100009004169089906108e0906134f5565b80601f016020809104026020016040519081016040528092919081815260200182805461090c906134f5565b80156109595780601f1061092e57610100808354040283529160200191610959565b820191906000526020600020905b81548152906001019060200180831161093c57829003601f168201915b5050505050985086805461096c906134f5565b80601f0160208091040260200160405190810160405280929190818152602001828054610998906134f5565b80156109e55780601f106109ba576101008083540402835291602001916109e5565b820191906000526020600020905b8154815290600101906020018083116109c857829003601f168201915b505050505096509c509c509c509c509c509c509c509c509c509c509c50505091939597999b90929496989a50565b60008581526002602052604090206001015485906001600160a01b0316610a4c5760405162461bcd60e51b815260040161085b9061352f565b85600080828152600260205260409020600b015460ff166003811115610a7457610a74612bc4565b14610a915760405162461bcd60e51b815260040161085b9061355e565b600087815260026020526040902060018101548891906001600160a01b0316331480610ac9575060028101546001600160a01b031633145b610ae55760405162461bcd60e51b815260040161085b9061358c565b6000885111610b365760405162461bcd60e51b815260206004820152601d60248201527f4e6577204950465320686173682063616e6e6f7420626520656d707479000000604482015260640161085b565b6000875111610b805760405162461bcd60e51b8152602060048201526016602482015275155c19185d19481c99585cdbdb881c995c5d5a5c995960521b604482015260640161085b565b6000801b600889604051610b9491906135d0565b90815260200160405180910390205414610bf05760405162461bcd60e51b815260206004820152601c60248201527f49504653206861736820616c7265616479207265676973746572656400000000604482015260640161085b565b600089815260026020908152604091829020600a81015492519092600c840192610c20926005860192910161365f565b60408051601f1981840301815291905280516020918201208254600181018455600093845291909220015560058101610c598a826136c6565b50426009820155600a81018054906000610c728361379b565b9091555050865115610c8e5760078101610c8c88826136c6565b505b855115610ca55760068101610ca387826136c6565b505b8960088a604051610cb691906135d0565b908152602001604051809103902081905550336001600160a01b03168a7fbe36fb79863912770879cec6cd551287be9f9d8afe525e549d883ecb074d00048b8b85600a015442604051610d0c94939291906137b4565b60405180910390a350505050505050505050565b600c546001600160a01b03163314610d4a5760405162461bcd60e51b815260040161085b906137ed565b600e55565b6009546060906000906001600160401b03811115610d6f57610d6f612d9e565b604051908082528060200260200182016040528015610d98578160200160208202803683370190505b5090506000805b600954811015610e6557846003811115610dbb57610dbb612bc4565b6002600060098481548110610dd257610dd261382e565b600091825260208083209091015483528201929092526040019020600b015460ff166003811115610e0557610e05612bc4565b03610e535760098181548110610e1d57610e1d61382e565b9060005260206000200154838381518110610e3a57610e3a61382e565b602090810291909101015281610e4f8161379b565b9250505b80610e5d8161379b565b915050610d9f565b506000816001600160401b03811115610e8057610e80612d9e565b604051908082528060200260200182016040528015610ea9578160200160208202803683370190505b50905060005b82811015610f0057838181518110610ec957610ec961382e565b6020026020010151828281518110610ee357610ee361382e565b602090810291909101015280610ef88161379b565b915050610eaf565b50949350505050565b60098181548110610f1957600080fd5b600091825260209091200154905081565b60008281526002602052604081206001015483906001600160a01b0316610f635760405162461bcd60e51b815260040161085b9061352f565b600084815260026020526040902060018101546001600160a01b0390811690851603610f9357600192505061107b565b60028101546001600160a01b0390811690851603610fb557600192505061107b565b6001600160a01b0384166000908152600d8201602052604090205460ff1615610fe257600192505061107b565b60008054600183015460405163630cf6bb60e01b81526001600160a01b039283169263630cf6bb926110209291169089906003880190600401613844565b6040805180830381865afa15801561103c573d6000803e3d6000fd5b505050506040513d601f19601f8201168201806040525081019061106091906138ed565b50905080156110745760019350505061107b565b6000935050505b5092915050565b6006602052816000526040600020818154811061109e57600080fd5b60009182526020909120600590910201805460018201546002830180546001600160a01b039093169550909350906110d5906134f5565b80601f0160208091040260200160405190810160405280929190818152602001828054611101906134f5565b801561114e5780601f106111235761010080835404028352916020019161114e565b820191906000526020600020905b81548152906001019060200180831161113157829003601f168201915b50505050600383015460049093015491929160ff16905085565b6001600160a01b03821660009081526003602090815260408083208054825181850281018501909352808352606094938301828280156111c757602002820191906000526020600020905b8154815260200190600101908083116111b3575b50505050509050600081516001600160401b038111156111e9576111e9612d9e565b604051908082528060200260200182016040528015611212578160200160208202803683370190505b5090506000805b83518110156113005760006002600086848151811061123a5761123a61382e565b60200260200101518152602001908152602001600020905086516000148061127f57508651602088012060405161127590600384019061391b565b6040518091039020145b80156112a357506000600b82015460ff1660038111156112a1576112a1612bc4565b145b156112ed578482815181106112ba576112ba61382e565b60200260200101518484815181106112d4576112d461382e565b6020908102919091010152826112e98161379b565b9350505b50806112f88161379b565b915050611219565b506000816001600160401b0381111561131b5761131b612d9e565b604051908082528060200260200182016040528015611344578160200160208202803683370190505b50905060005b8281101561139b578381815181106113645761136461382e565b602002602001015182828151811061137e5761137e61382e565b6020908102919091010152806113938161379b565b91505061134a565b5093505050505b92915050565b600b60205260009081526040902080546113c1906134f5565b80601f01602080910402602001604051908101604052809291908181526020018280546113ed906134f5565b801561143a5780601f1061140f5761010080835404028352916020019161143a565b820191906000526020600020905b81548152906001019060200180831161141d57829003601f168201915b505050505081565b600c546001600160a01b0316331461146c5760405162461bcd60e51b815260040161085b906137ed565b6001600160a01b0381166000908152600a60209081526040808320805460ff19169055600b909152812061149f91612b0d565b50565b336000908152600a602052604081205460ff166115015760405162461bcd60e51b815260206004820152601760248201527f4e6f7420617574686f72697a65642070726f7669646572000000000000000000604482015260640161085b565b6001600160a01b0389166115575760405162461bcd60e51b815260206004820152601760248201527f496e76616c69642070617469656e742061646472657373000000000000000000604482015260640161085b565b60008851116115a85760405162461bcd60e51b815260206004820152601960248201527f4461746120747970652063616e6e6f7420626520656d70747900000000000000604482015260640161085b565b60008651116115f95760405162461bcd60e51b815260206004820152601960248201527f4950465320686173682063616e6e6f7420626520656d70747900000000000000604482015260640161085b565b6000801b60088760405161160d91906135d0565b908152602001604051809103902054146116695760405162461bcd60e51b815260206004820152601c60248201527f49504653206861736820616c7265616479207265676973746572656400000000604482015260640161085b565b88338988424360405160200161168496959493929190613927565b60408051601f1981840301815291815281516020928301206000818152600293849052919091208181556001810180546001600160a01b038e166001600160a01b031991821617909155928101805490931633179092559150600381016116eb8a826136c6565b5060048101805489919060ff1916600183600b81111561170d5761170d612bc4565b02179055506005810161172088826136c6565b506006810161172f85826136c6565b506007810161173e87826136c6565b5042600882018190556009808301919091556001600a8301819055600b8301805462ffffff19166101008915150262ff0000191617620100008715150217905581548082019092557f6e1540171b6c0c960b71a7020d9f60077f6af931a8bbf590da0223dacf75c7af9091018390556001600160a01b038b166000908152600360209081526040808320805480860182559084528284200186905533835260048252808320805494850181558352912090910183905551600590611803908b906135d0565b908152604051908190036020908101822080546001810182556000918252919020018390558290600890611838908a906135d0565b90815260405190819003602001902055600d80549060006118588361379b565b9190505550336001600160a01b03168a6001600160a01b0316837f965605c5e1049461a210f20f51656e29fa494c0962aba09a6fd9526efe8d7fa68c8b428b6040516118a79493929190613990565b60405180910390a45098975050505050505050565b600360205281600052604060002081815481106107f857600080fd5b60008181526002602052604090206001015460609081908190819085906001600160a01b031661191a5760405162461bcd60e51b815260040161085b9061352f565b600086815260076020526040812080549091816001600160401b0381111561194457611944612d9e565b60405190808252806020026020018201604052801561196d578160200160208202803683370190505b5090506000826001600160401b0381111561198a5761198a612d9e565b6040519080825280602002602001820160405280156119b3578160200160208202803683370190505b5090506000836001600160401b038111156119d0576119d0612d9e565b6040519080825280602002602001820160405280156119f9578160200160208202803683370190505b5090506000846001600160401b03811115611a1657611a16612d9e565b604051908082528060200260200182016040528015611a3f578160200160208202803683370190505b50905060005b85811015611bbf57868181548110611a5f57611a5f61382e565b600091825260209091206005909102015485516001600160a01b0390911690869083908110611a9057611a9061382e565b60200260200101906001600160a01b031690816001600160a01b031681525050868181548110611ac257611ac261382e565b906000526020600020906005020160010154848281518110611ae657611ae661382e565b602002602001018181525050868181548110611b0457611b0461382e565b906000526020600020906005020160020154838281518110611b2857611b2861382e565b602002602001018181525050868181548110611b4657611b4661382e565b600091825260209091206004600590920201015460ff168015611b8b575042878281548110611b7757611b7761382e565b906000526020600020906005020160020154115b828281518110611b9d57611b9d61382e565b9115156020928302919091019091015280611bb78161379b565b915050611a45565b50929b919a509850909650945050505050565b60076020528160005260406000208181548110611bee57600080fd5b600091825260209091206005909102018054600182015460028301546003840180546001600160a01b0390941696509194509291611c2b906134f5565b80601f0160208091040260200160405190810160405280929190818152602001828054611c57906134f5565b8015611ca45780601f10611c7957610100808354040283529160200191611ca4565b820191906000526020600020905b815481529060010190602001808311611c8757829003601f168201915b5050506004909301549192505060ff1685565b600c546001600160a01b03163314611ce15760405162461bcd60e51b815260040161085b906137ed565b6001600160a01b03821615611d0c57600080546001600160a01b0319166001600160a01b0384161790555b6001600160a01b03811615611d3757600180546001600160a01b0319166001600160a01b0383161790555b5050565b6000600882604051611d4d91906135d0565b9081526020016040518091039020549050919050565b815160208184018101805160058252928201918501919091209190528054829081106107f857600080fd5b600083815260026020526040902060010154606090819085906001600160a01b0316611dcc5760405162461bcd60e51b815260040161085b9061352f565b85600080828152600260205260409020600b015460ff166003811115611df457611df4612bc4565b14611e115760405162461bcd60e51b815260040161085b9061355e565b6000878152600260205260408120600181015490919081906001600160a01b03163303611e415760019150611eec565b60028301546001600160a01b03163303611e5e5760019150611eec565b60008054600185015460405163630cf6bb60e01b81526001600160a01b039283169263630cf6bb92611e9c92911690339060038a0190600401613844565b6040805180830381865afa158015611eb8573d6000803e3d6000fd5b505050506040513d601f19601f82011682018060405250810190611edc91906138ed565b5090508015611eea57600192505b505b81158015611ef957508715155b15611f7b5760015460405163e456766b60e01b8152600481018a90526000916001600160a01b03169063e456766b90602401602060405180830381865afa158015611f48573d6000803e3d6000fd5b505050506040513d601f19601f82011682018060405250810190611f6c91906139ce565b90508015611f7957600192505b505b81158015611f935750600b83015462010000900460ff165b15611fd457336000908152600a602052604090205460ff168015611fc85750600e548360080154611fc491906139eb565b4211155b15611fd4575060019050805b81611ff15760405162461bcd60e51b815260040161085b9061358c565b60018301546001600160a01b0316331480159061201b575060028301546001600160a01b03163314155b156120f2576000805460018501546040516327bfc1ad60e21b81526001600160a01b0392831692639eff06b49261205e92911690339060038a0190600401613844565b60408051808303816000875af115801561207c573d6000803e3d6000fd5b505050506040513d601f19601f820116820180604052508101906120a091906138ed565b509050806120f05760405162461bcd60e51b815260206004820152601f60248201527f50617469656e7420636f6e73656e74206e6f206c6f6e6765722076616c696400604482015260640161085b565b505b60008a8152600660209081526040808320815160a081018352338152428185019081529281018e8152606082018e9052861515608083015282546001808201855593875294909520815160059095020180546001600160a01b0319166001600160a01b039095169490941784559151908301559151600282019061217690826136c6565b50606082015160038201556080909101516004909101805460ff191691151591909117905560018301546040516001600160a01b039091169033908c907fbc1fccd9d329f8ee14d93d36f387972a49b370e5f84aadbbf4d2b6b3d09de029906121e4908e9042908f906139fe565b60405180910390a48260050183600601818054612200906134f5565b80601f016020809104026020016040519081016040528092919081815260200182805461222c906134f5565b80156122795780601f1061224e57610100808354040283529160200191612279565b820191906000526020600020905b81548152906001019060200180831161225c57829003601f168201915b5050505050915080805461228c906134f5565b80601f01602080910402602001604051908101604052809291908181526020018280546122b8906134f5565b80156123055780601f106122da57610100808354040283529160200191612305565b820191906000526020600020905b8154815290600101906020018083116122e857829003601f168201915b50505050509050965096505050505050935093915050565b60008281526002602052604090206001015482906001600160a01b03166123565760405162461bcd60e51b815260040161085b9061352f565b600083815260026020526040902060018101548491906001600160a01b031633148061238e575060028101546001600160a01b031633145b6123aa5760405162461bcd60e51b815260040161085b9061358c565b60008451116123f45760405162461bcd60e51b815260206004820152601660248201527511195b195d19481c99585cdbdb881c995c5d5a5c995960521b604482015260640161085b565b600085815260026020819052604091829020600b8101805460ff1916909217909155426009820181905591519091339188917fc0b7a5e0ce2de8d51f6894e395de39625dd29ab9b621da01fb1882f8a2cd73fa91612453918a91613a23565b60405180910390a3505050505050565b6000818152600260205260409020600101546060908190819084906001600160a01b03166124a35760405162461bcd60e51b815260040161085b9061352f565b600085815260066020526040812080549091816001600160401b038111156124cd576124cd612d9e565b6040519080825280602002602001820160405280156124f6578160200160208202803683370190505b5090506000826001600160401b0381111561251357612513612d9e565b60405190808252806020026020018201604052801561253c578160200160208202803683370190505b5090506000836001600160401b0381111561255957612559612d9e565b60405190808252806020026020018201604052801561258c57816020015b60608152602001906001900390816125775790505b50905060005b8481101561271b578581815481106125ac576125ac61382e565b600091825260209091206005909102015484516001600160a01b03909116908590839081106125dd576125dd61382e565b60200260200101906001600160a01b031690816001600160a01b03168152505085818154811061260f5761260f61382e565b9060005260206000209060050201600101548382815181106126335761263361382e565b6020026020010181815250508581815481106126515761265161382e565b9060005260206000209060050201600201805461266d906134f5565b80601f0160208091040260200160405190810160405280929190818152602001828054612699906134f5565b80156126e65780601f106126bb576101008083540402835291602001916126e6565b820191906000526020600020905b8154815290600101906020018083116126c957829003601f168201915b50505050508282815181106126fd576126fd61382e565b602002602001018190525080806127139061379b565b915050612592565b509199909850909650945050505050565b60008481526002602052604090206001015484906001600160a01b03166127655760405162461bcd60e51b815260040161085b9061352f565b84600080828152600260205260409020600b015460ff16600381111561278d5761278d612bc4565b146127aa5760405162461bcd60e51b815260040161085b9061355e565b6001600160a01b0385166128005760405162461bcd60e51b815260206004820152601d60248201527f496e76616c6964206164647265737320746f2073686172652077697468000000604482015260640161085b565b6000868152600260205260409020600101546001600160a01b031633146128695760405162461bcd60e51b815260206004820152601e60248201527f4f6e6c792070617469656e742063616e207368617265207265636f7264730000604482015260640161085b565b600084116128b95760405162461bcd60e51b815260206004820152601760248201527f496e76616c696420657870697279206475726174696f6e000000000000000000604482015260640161085b565b60006128c585426139eb565b6000888152600760209081526040808320815160a0810183526001600160a01b038c8116825242828601908152938201878152606083018c81526001608085018190528554808201875595895296909720835160059095020180546001600160a01b03191694909216939093178155925193830193909355516002820155915192935091600382019061295890826136c6565b50608091909101516004909101805460ff191691151591909117905560008781526002602090815260408083206001600160a01b038a168452600d0190915290205460ff166129fa5760008781526002602081815260408084206001600160a01b038b16808652600d82018452918520805460ff19166001908117909155938352600e0180549384018155845292200180546001600160a01b03191690911790555b856001600160a01b0316336001600160a01b0316887fadb423e2f5a58d7a126c4691d8e034f84ba9c1caf4899e0531e5528d288363828488604051612a40929190613a45565b60405180910390a450505050505050565b600c546001600160a01b03163314612a7b5760405162461bcd60e51b815260040161085b906137ed565b6001600160a01b038216612ad15760405162461bcd60e51b815260206004820152601860248201527f496e76616c69642070726f766964657220616464726573730000000000000000604482015260640161085b565b6001600160a01b0382166000908152600a60209081526040808320805460ff19166001179055600b9091529020612b0882826136c6565b505050565b508054612b19906134f5565b6000825580601f10612b29575050565b601f01602090049060005260206000209081019061149f91905b80821115612b575760008155600101612b43565b5090565b600060208284031215612b6d57600080fd5b5035919050565b60005b83811015612b8f578181015183820152602001612b77565b50506000910152565b60008151808452612bb0816020860160208601612b74565b601f01601f19169290920160200192915050565b634e487b7160e01b600052602160045260246000fd5b600c8110612bea57612bea612bc4565b9052565b60048110612bea57612bea612bc4565b8e81526001600160a01b038e1660208201526001600160a01b038d1660408201526101c060608201526000612c376101c083018e612b98565b612c44608084018e612bda565b82810360a0840152612c56818d612b98565b905082810360c0840152612c6a818c612b98565b905082810360e0840152612c7e818b612b98565b915050876101008301528661012083015285610140830152612ca4610160830186612bee565b9215156101808201529015156101a0909101529c9b505050505050505050505050565b80356001600160a01b0381168114612cde57600080fd5b919050565b60008060408385031215612cf657600080fd5b612cff83612cc7565b946020939093013593505050565b6001600160a01b038c811682528b16602082015261016060408201819052600090612d3a8382018d612b98565b9050612d49606084018c612bda565b8281036080840152612d5b818b612b98565b9150508760a08301528660c08301528560e0830152612d7e610100830186612bee565b921515610120820152901515610140909101529998505050505050505050565b634e487b7160e01b600052604160045260246000fd5b600082601f830112612dc557600080fd5b81356001600160401b0380821115612ddf57612ddf612d9e565b604051601f8301601f19908116603f01168101908282118183101715612e0757612e07612d9e565b81604052838152866020858801011115612e2057600080fd5b836020870160208301376000602085830101528094505050505092915050565b600060208284031215612e5257600080fd5b81356001600160401b03811115612e6857600080fd5b612e7484828501612db4565b949350505050565b600080600080600060a08688031215612e9457600080fd5b8535945060208601356001600160401b0380821115612eb257600080fd5b612ebe89838a01612db4565b95506040880135915080821115612ed457600080fd5b612ee089838a01612db4565b94506060880135915080821115612ef657600080fd5b612f0289838a01612db4565b93506080880135915080821115612f1857600080fd5b50612f2588828901612db4565b9150509295509295909350565b600060208284031215612f4457600080fd5b813560048110612f5357600080fd5b9392505050565b6020808252825182820181905260009190848201906040850190845b81811015612f9257835183529284019291840191600101612f76565b50909695505050505050565b60008060408385031215612fb157600080fd5b82359150612fc160208401612cc7565b90509250929050565b60008060408385031215612fdd57600080fd5b50508035926020909101359150565b60018060a01b038616815284602082015260a06040820152600061301360a0830186612b98565b6060830194909452509015156080909101529392505050565b60006020828403121561303e57600080fd5b612f5382612cc7565b6000806040838503121561305a57600080fd5b61306383612cc7565b915060208301356001600160401b0381111561307e57600080fd5b61308a85828601612db4565b9150509250929050565b602081526000612f536020830184612b98565b8035600c8110612cde57600080fd5b801515811461149f57600080fd5b8035612cde816130b6565b600080600080600080600080610100898b0312156130ec57600080fd5b6130f589612cc7565b975060208901356001600160401b038082111561311157600080fd5b61311d8c838d01612db4565b985061312b60408c016130a7565b975060608b013591508082111561314157600080fd5b61314d8c838d01612db4565b965060808b013591508082111561316357600080fd5b61316f8c838d01612db4565b955061317d60a08c016130c4565b945060c08b013591508082111561319357600080fd5b506131a08b828c01612db4565b9250506131af60e08a016130c4565b90509295985092959890939650565b600081518084526020808501945080840160005b838110156131f75781516001600160a01b0316875295820195908201906001016131d2565b509495945050505050565b600081518084526020808501945080840160005b838110156131f757815187529582019590820190600101613216565b60808152600061324560808301876131be565b6020838203818501526132588288613202565b9150838203604085015261326c8287613202565b8481036060860152855180825282870193509082019060005b818110156132a3578451151583529383019391830191600101613285565b50909998505050505050505050565b60018060a01b038616815284602082015283604082015260a0606082015260006132df60a0830185612b98565b905082151560808301529695505050505050565b6000806040838503121561330657600080fd5b61330f83612cc7565b9150612fc160208401612cc7565b6000806040838503121561333057600080fd5b82356001600160401b0381111561334657600080fd5b61335285828601612db4565b95602094909401359450505050565b60008060006060848603121561337657600080fd5b8335925060208401356001600160401b0381111561339357600080fd5b61339f86828701612db4565b925050604084013590509250925092565b6040815260006133c36040830185612b98565b82810360208401526133d58185612b98565b95945050505050565b600080604083850312156133f157600080fd5b8235915060208301356001600160401b0381111561307e57600080fd5b60608152600061342160608301866131be565b6020838203818501526134348287613202565b915083820360408501528185518084528284019150828160051b85010183880160005b8381101561348557601f19878403018552613473838351612b98565b94860194925090850190600101613457565b50909a9950505050505050505050565b600080600080608085870312156134ab57600080fd5b843593506134bb60208601612cc7565b92506040850135915060608501356001600160401b038111156134dd57600080fd5b6134e987828801612db4565b91505092959194509250565b600181811c9082168061350957607f821691505b60208210810361352957634e487b7160e01b600052602260045260246000fd5b50919050565b602080825260159082015274149958dbdc9908191bd95cc81b9bdd08195e1a5cdd605a1b604082015260600190565b6020808252601490820152735265636f7264206973206e6f742061637469766560601b604082015260600190565b60208082526024908201527f4e6f7420617574686f72697a656420746f20616363657373207468697320726560408201526318dbdc9960e21b606082015260800190565b600082516135e2818460208701612b74565b9190910192915050565b600081546135f9816134f5565b60018281168015613611576001811461362657613655565b60ff1984168752821515830287019450613655565b8560005260208060002060005b8581101561364c5781548a820152908401908201613633565b50505082870194505b5050505092915050565b600061366b82856135ec565b9283525050602001919050565b601f821115612b0857600081815260208120601f850160051c8101602086101561369f5750805b601f850160051c820191505b818110156136be578281556001016136ab565b505050505050565b81516001600160401b038111156136df576136df612d9e565b6136f3816136ed84546134f5565b84613678565b602080601f83116001811461372857600084156137105750858301515b600019600386901b1c1916600185901b1785556136be565b600085815260208120601f198616915b8281101561375757888601518255948401946001909101908401613738565b50858210156137755787850151600019600388901b60f8161c191681555b5050505050600190811b01905550565b634e487b7160e01b600052601160045260246000fd5b6000600182016137ad576137ad613785565b5060010190565b6080815260006137c76080830187612b98565b82810360208401526137d98187612b98565b604084019590955250506060015292915050565b60208082526021908201527f4f6e6c792061646d696e2063616e2063616c6c20746869732066756e6374696f6040820152603760f91b606082015260800190565b634e487b7160e01b600052603260045260246000fd5b6001600160a01b03848116825283166020808301919091526060604083015282546000918291613873816134f5565b806060870152608060018084166000811461389557600181146138af576138dd565b60ff1985168984015283151560051b8901830196506138dd565b896000528560002060005b858110156138d55781548b82018601529083019087016138ba565b8a0184019750505b50949a9950505050505050505050565b6000806040838503121561390057600080fd5b825161390b816130b6565b6020939093015192949293505050565b6000612f5382846135ec565b60006bffffffffffffffffffffffff19808960601b168352808860601b16601484015250855161395e816028850160208a01612b74565b855190830190613975816028840160208a01612b74565b01602881019490945250506048820152606801949350505050565b6080815260006139a36080830187612b98565b82810360208401526139b58187612b98565b6040840195909552505090151560609091015292915050565b6000602082840312156139e057600080fd5b8151612f53816130b6565b808201808211156113a2576113a2613785565b606081526000613a116060830186612b98565b60208301949094525060400152919050565b604081526000613a366040830185612b98565b90508260208301529392505050565b828152604060208201526000612e746040830184612b9856fea26469706673582212204482f4729e7f648fc48afb413cf6ee0be610adb67dab862a32222d45e695a34664736f6c63430008130033",
  "immutableReferences": {},
  "source": "// SPDX-License-Identifier: MIT\r\npragma solidity ^0.8.19;\r\n\r\nimport \"./ConsentManagement.sol\";\r\nimport \"./MultiSignatureAccess.sol\";\r\n\r\n/**\r\n * @title RecordRegistry\r\n * @dev Smart contract for managing medical records with IPFS storage\r\n * @author ARCHBTW Team - MedLedger\r\n */\r\ncontract RecordRegistry {\r\n    \r\n    // Reference to other contracts\r\n    ConsentManagement public consentContract;\r\n    MultiSignatureAccess public multiSigContract;\r\n    \r\n    // Events\r\n    event RecordRegistered(\r\n        bytes32 indexed recordId,\r\n        address indexed patient,\r\n        address indexed provider,\r\n        string dataType,\r\n        string ipfsHash,\r\n        uint256 timestamp,\r\n        bool encrypted\r\n    );\r\n    \r\n    event RecordAccessed(\r\n        bytes32 indexed recordId,\r\n        address indexed accessor,\r\n        address indexed patient,\r\n        string accessReason,\r\n        uint256 timestamp,\r\n        bytes32 multiSigProposalId\r\n    );\r\n    \r\n    event RecordUpdated(\r\n        bytes32 indexed recordId,\r\n        address indexed updater,\r\n        string newIpfsHash,\r\n        string updateReason,\r\n        uint256 version,\r\n        uint256 timestamp\r\n    );\r\n    \r\n    event RecordDeleted(\r\n        bytes32 indexed recordId,\r\n        address indexed deleter,\r\n        string deleteReason,\r\n        uint256 timestamp\r\n    );\r\n    \r\n    event RecordShared(\r\n        bytes32 indexed recordId,\r\n        address indexed patient,\r\n        address indexed sharedWith,\r\n        uint256 shareExpiry,\r\n        string shareReason\r\n    );\r\n    \r\n    event RecordVersionCreated(\r\n        bytes32 indexed originalRecordId,\r\n        bytes32 indexed newVersionId,\r\n        uint256 versionNumber,\r\n        address indexed creator\r\n    );\r\n    \r\n    // Enums\r\n    enum RecordStatus {\r\n        Active,\r\n        Archived,\r\n        Deleted,\r\n        Quarantined\r\n    }\r\n    \r\n    enum RecordType {\r\n        Diagnosis,\r\n        Prescription,\r\n        LabResult,\r\n        Imaging,\r\n        Surgery,\r\n        Emergency,\r\n        Vaccination,\r\n        Allergy,\r\n        VitalSigns,\r\n        Discharge,\r\n        Consultation,\r\n        Other\r\n    }\r\n    \r\n    // Structs\r\n    struct MedicalRecord {\r\n        bytes32 recordId;\r\n        address patient;\r\n        address provider;\r\n        string dataType;\r\n        RecordType recordType;\r\n        string ipfsHash;\r\n        string encryptionKey;      // For encrypted records\r\n        string metadata;           // JSON metadata\r\n        uint256 createdAt;\r\n        uint256 lastModified;\r\n        uint256 version;\r\n        RecordStatus status;\r\n        bool isEncrypted;\r\n        bool isEmergencyAccessible;\r\n        bytes32[] previousVersions;\r\n        mapping(address => bool) authorizedViewers;\r\n        address[] viewersList;\r\n    }\r\n    \r\n    struct RecordAccess {\r\n        address accessor;\r\n        uint256 accessTime;\r\n        string reason;\r\n        bytes32 multiSigProposalId;\r\n        bool wasEmergencyAccess;\r\n    }\r\n    \r\n    struct RecordShare {\r\n        address sharedWith;\r\n        uint256 sharedAt;\r\n        uint256 expiresAt;\r\n        string reason;\r\n        bool isActive;\r\n    }\r\n    \r\n    // Mappings\r\n    mapping(bytes32 => MedicalRecord) public records;\r\n    mapping(address => bytes32[]) public patientRecords;\r\n    mapping(address => bytes32[]) public providerRecords;\r\n    mapping(string => bytes32[]) public recordsByType;\r\n    mapping(bytes32 => RecordAccess[]) public recordAccessHistory;\r\n    mapping(bytes32 => RecordShare[]) public recordShares;\r\n    mapping(string => bytes32) public ipfsHashToRecordId;\r\n    \r\n    // State variables\r\n    bytes32[] public allRecordIds;\r\n    mapping(address => bool) public authorizedProviders;\r\n    mapping(address => string) public providerNames;\r\n    address public admin;\r\n    uint256 public totalRecords;\r\n    uint256 public emergencyAccessWindow = 24 hours;\r\n    \r\n    // Modifiers\r\n    modifier onlyAdmin() {\r\n        require(msg.sender == admin, \"Only admin can call this function\");\r\n        _;\r\n    }\r\n    \r\n    modifier onlyAuthorizedProvider() {\r\n        require(authorizedProviders[msg.sender], \"Not authorized provider\");\r\n        _;\r\n    }\r\n    \r\n    modifier onlyPatientOrProvider(bytes32 _recordId) {\r\n        MedicalRecord storage record = records[_recordId];\r\n        require(\r\n            msg.sender == record.patient || msg.sender == record.provider,\r\n            \"Not authorized to access this record\"\r\n        );\r\n        _;\r\n    }\r\n    \r\n    modifier recordExists(bytes32 _recordId) {\r\n        require(records[_recordId].patient != address(0), \"Record does not exist\");\r\n        _;\r\n    }\r\n    \r\n    modifier recordActive(bytes32 _recordId) {\r\n        require(records[_recordId].status == RecordStatus.Active, \"Record is not active\");\r\n        _;\r\n    }\r\n    \r\n    // Constructor\r\n    constructor(\r\n        address _consentContractAddress,\r\n        address _multiSigContractAddress\r\n    ) {\r\n        admin = msg.sender;\r\n        consentContract = ConsentManagement(_consentContractAddress);\r\n        multiSigContract = MultiSignatureAccess(_multiSigContractAddress);\r\n        \r\n        // Admin is automatically authorized provider\r\n        authorizedProviders[admin] = true;\r\n        providerNames[admin] = \"System Administrator\";\r\n    }\r\n    \r\n    /**\r\n     * @dev Add authorized medical provider\r\n     */\r\n    function addProvider(address _provider, string memory _name) external onlyAdmin {\r\n        require(_provider != address(0), \"Invalid provider address\");\r\n        authorizedProviders[_provider] = true;\r\n        providerNames[_provider] = _name;\r\n    }\r\n    \r\n    /**\r\n     * @dev Remove authorized medical provider\r\n     */\r\n    function removeProvider(address _provider) external onlyAdmin {\r\n        authorizedProviders[_provider] = false;\r\n        delete providerNames[_provider];\r\n    }\r\n    \r\n    /**\r\n     * @dev Register a new medical record\r\n     */\r\n    function registerRecord(\r\n        address _patient,\r\n        string memory _dataType,\r\n        RecordType _recordType,\r\n        string memory _ipfsHash,\r\n        string memory _metadata,\r\n        bool _isEncrypted,\r\n        string memory _encryptionKey,\r\n        bool _isEmergencyAccessible\r\n    ) external onlyAuthorizedProvider returns (bytes32 recordId) {\r\n        require(_patient != address(0), \"Invalid patient address\");\r\n        require(bytes(_dataType).length > 0, \"Data type cannot be empty\");\r\n        require(bytes(_ipfsHash).length > 0, \"IPFS hash cannot be empty\");\r\n        require(ipfsHashToRecordId[_ipfsHash] == bytes32(0), \"IPFS hash already registered\");\r\n        \r\n        // Generate unique record ID\r\n        recordId = keccak256(\r\n            abi.encodePacked(\r\n                _patient,\r\n                msg.sender,\r\n                _dataType,\r\n                _ipfsHash,\r\n                block.timestamp,\r\n                block.number\r\n            )\r\n        );\r\n        \r\n        // Create medical record\r\n        MedicalRecord storage record = records[recordId];\r\n        record.recordId = recordId;\r\n        record.patient = _patient;\r\n        record.provider = msg.sender;\r\n        record.dataType = _dataType;\r\n        record.recordType = _recordType;\r\n        record.ipfsHash = _ipfsHash;\r\n        record.encryptionKey = _encryptionKey;\r\n        record.metadata = _metadata;\r\n        record.createdAt = block.timestamp;\r\n        record.lastModified = block.timestamp;\r\n        record.version = 1;\r\n        record.status = RecordStatus.Active;\r\n        record.isEncrypted = _isEncrypted;\r\n        record.isEmergencyAccessible = _isEmergencyAccessible;\r\n        \r\n        // Track record\r\n        allRecordIds.push(recordId);\r\n        patientRecords[_patient].push(recordId);\r\n        providerRecords[msg.sender].push(recordId);\r\n        recordsByType[_dataType].push(recordId);\r\n        ipfsHashToRecordId[_ipfsHash] = recordId;\r\n        totalRecords++;\r\n        \r\n        emit RecordRegistered(\r\n            recordId,\r\n            _patient,\r\n            msg.sender,\r\n            _dataType,\r\n            _ipfsHash,\r\n            block.timestamp,\r\n            _isEncrypted\r\n        );\r\n        \r\n        return recordId;\r\n    }\r\n    \r\n    /**\r\n     * @dev Access a medical record with proper authorization\r\n     */\r\n    function accessRecord(\r\n        bytes32 _recordId,\r\n        string memory _reason,\r\n        bytes32 _multiSigProposalId\r\n    ) external recordExists(_recordId) recordActive(_recordId) returns (string memory ipfsHash, string memory encryptionKey) {\r\n        MedicalRecord storage record = records[_recordId];\r\n        \r\n        bool isAuthorized = false;\r\n        bool isEmergencyAccess = false;\r\n        \r\n        // Check authorization methods in order of preference\r\n        \r\n        // 1. Patient can always access their own records\r\n        if (msg.sender == record.patient) {\r\n            isAuthorized = true;\r\n        }\r\n        // 2. Provider who created the record can access\r\n        else if (msg.sender == record.provider) {\r\n            isAuthorized = true;\r\n        }\r\n        // 3. Check if accessor has patient consent\r\n        else {\r\n            (bool hasConsent,) = consentContract.checkConsentView(\r\n                record.patient,\r\n                msg.sender,\r\n                record.dataType\r\n            );\r\n            if (hasConsent) {\r\n                isAuthorized = true;\r\n            }\r\n        }\r\n        \r\n        // 4. Check multi-signature authorization (if provided)\r\n        if (!isAuthorized && _multiSigProposalId != bytes32(0)) {\r\n            // Check if the multi-sig proposal was executed successfully\r\n            bool isExecuted = multiSigContract.isProposalExecuted(_multiSigProposalId);\r\n            if (isExecuted) {\r\n                isAuthorized = true;\r\n            }\r\n        }\r\n        \r\n        // 5. Emergency access for critical records\r\n        if (!isAuthorized && record.isEmergencyAccessible) {\r\n            // Allow emergency access for authorized providers within emergency window\r\n            if (authorizedProviders[msg.sender] && \r\n                block.timestamp <= record.createdAt + emergencyAccessWindow) {\r\n                isAuthorized = true;\r\n                isEmergencyAccess = true;\r\n            }\r\n        }\r\n        \r\n        require(isAuthorized, \"Not authorized to access this record\");\r\n        \r\n        // For non-patient/provider access, do a final consent verification with state modification\r\n        if (msg.sender != record.patient && msg.sender != record.provider) {\r\n            (bool hasValidConsent,) = consentContract.checkConsent(\r\n                record.patient,\r\n                msg.sender,\r\n                record.dataType\r\n            );\r\n            require(hasValidConsent, \"Patient consent no longer valid\");\r\n        }\r\n        \r\n        // Log access\r\n        recordAccessHistory[_recordId].push(RecordAccess({\r\n            accessor: msg.sender,\r\n            accessTime: block.timestamp,\r\n            reason: _reason,\r\n            multiSigProposalId: _multiSigProposalId,\r\n            wasEmergencyAccess: isEmergencyAccess\r\n        }));\r\n        \r\n        emit RecordAccessed(\r\n            _recordId,\r\n            msg.sender,\r\n            record.patient,\r\n            _reason,\r\n            block.timestamp,\r\n            _multiSigProposalId\r\n        );\r\n        \r\n        return (record.ipfsHash, record.encryptionKey);\r\n    }\r\n    \r\n    /**\r\n     * @dev Update an existing medical record (creates new version)\r\n     */\r\n    function updateRecord(\r\n        bytes32 _recordId,\r\n        string memory _newIpfsHash,\r\n        string memory _updateReason,\r\n        string memory _newMetadata,\r\n        string memory _newEncryptionKey\r\n    ) external recordExists(_recordId) recordActive(_recordId) onlyPatientOrProvider(_recordId) {\r\n        require(bytes(_newIpfsHash).length > 0, \"New IPFS hash cannot be empty\");\r\n        require(bytes(_updateReason).length > 0, \"Update reason required\");\r\n        require(ipfsHashToRecordId[_newIpfsHash] == bytes32(0), \"IPFS hash already registered\");\r\n        \r\n        MedicalRecord storage record = records[_recordId];\r\n        \r\n        // Store previous version\r\n        record.previousVersions.push(keccak256(abi.encodePacked(record.ipfsHash, record.version)));\r\n        \r\n        // Update record\r\n        record.ipfsHash = _newIpfsHash;\r\n        record.lastModified = block.timestamp;\r\n        record.version++;\r\n        if (bytes(_newMetadata).length > 0) {\r\n            record.metadata = _newMetadata;\r\n        }\r\n        if (bytes(_newEncryptionKey).length > 0) {\r\n            record.encryptionKey = _newEncryptionKey;\r\n        }\r\n        \r\n        // Update IPFS mapping\r\n        ipfsHashToRecordId[_newIpfsHash] = _recordId;\r\n        \r\n        emit RecordUpdated(\r\n            _recordId,\r\n            msg.sender,\r\n            _newIpfsHash,\r\n            _updateReason,\r\n            record.version,\r\n            block.timestamp\r\n        );\r\n    }\r\n    \r\n    /**\r\n     * @dev Delete a medical record (soft delete)\r\n     */\r\n    function deleteRecord(\r\n        bytes32 _recordId,\r\n        string memory _deleteReason\r\n    ) external recordExists(_recordId) onlyPatientOrProvider(_recordId) {\r\n        require(bytes(_deleteReason).length > 0, \"Delete reason required\");\r\n        \r\n        MedicalRecord storage record = records[_recordId];\r\n        record.status = RecordStatus.Deleted;\r\n        record.lastModified = block.timestamp;\r\n        \r\n        emit RecordDeleted(_recordId, msg.sender, _deleteReason, block.timestamp);\r\n    }\r\n    \r\n    /**\r\n     * @dev Share record with specific address for limited time\r\n     */\r\n    function shareRecord(\r\n        bytes32 _recordId,\r\n        address _sharedWith,\r\n        uint256 _expiryDuration,\r\n        string memory _shareReason\r\n    ) external recordExists(_recordId) recordActive(_recordId) {\r\n        require(_sharedWith != address(0), \"Invalid address to share with\");\r\n        require(msg.sender == records[_recordId].patient, \"Only patient can share records\");\r\n        require(_expiryDuration > 0, \"Invalid expiry duration\");\r\n        \r\n        uint256 expiresAt = block.timestamp + _expiryDuration;\r\n        \r\n        recordShares[_recordId].push(RecordShare({\r\n            sharedWith: _sharedWith,\r\n            sharedAt: block.timestamp,\r\n            expiresAt: expiresAt,\r\n            reason: _shareReason,\r\n            isActive: true\r\n        }));\r\n        \r\n        // Add to authorized viewers\r\n        if (!records[_recordId].authorizedViewers[_sharedWith]) {\r\n            records[_recordId].authorizedViewers[_sharedWith] = true;\r\n            records[_recordId].viewersList.push(_sharedWith);\r\n        }\r\n        \r\n        emit RecordShared(_recordId, msg.sender, _sharedWith, expiresAt, _shareReason);\r\n    }\r\n    \r\n    /**\r\n     * @dev Get patient's records by type\r\n     */\r\n    function getPatientRecords(\r\n        address _patient,\r\n        string memory _dataType\r\n    ) external view returns (bytes32[] memory) {\r\n        bytes32[] memory patientRecordIds = patientRecords[_patient];\r\n        bytes32[] memory filteredRecords = new bytes32[](patientRecordIds.length);\r\n        uint256 count = 0;\r\n        \r\n        for (uint256 i = 0; i < patientRecordIds.length; i++) {\r\n            MedicalRecord storage record = records[patientRecordIds[i]];\r\n            if (\r\n                (bytes(_dataType).length == 0 || \r\n                 keccak256(bytes(record.dataType)) == keccak256(bytes(_dataType))) &&\r\n                record.status == RecordStatus.Active\r\n            ) {\r\n                filteredRecords[count] = patientRecordIds[i];\r\n                count++;\r\n            }\r\n        }\r\n        \r\n        // Resize array\r\n        bytes32[] memory result = new bytes32[](count);\r\n        for (uint256 i = 0; i < count; i++) {\r\n            result[i] = filteredRecords[i];\r\n        }\r\n        \r\n        return result;\r\n    }\r\n    \r\n    /**\r\n     * @dev Get record details\r\n     */\r\n    function getRecordDetails(bytes32 _recordId) external view recordExists(_recordId) returns (\r\n        address patient,\r\n        address provider,\r\n        string memory dataType,\r\n        RecordType recordType,\r\n        string memory metadata,\r\n        uint256 createdAt,\r\n        uint256 lastModified,\r\n        uint256 version,\r\n        RecordStatus status,\r\n        bool isEncrypted,\r\n        bool isEmergencyAccessible\r\n    ) {\r\n        MedicalRecord storage record = records[_recordId];\r\n        return (\r\n            record.patient,\r\n            record.provider,\r\n            record.dataType,\r\n            record.recordType,\r\n            record.metadata,\r\n            record.createdAt,\r\n            record.lastModified,\r\n            record.version,\r\n            record.status,\r\n            record.isEncrypted,\r\n            record.isEmergencyAccessible\r\n        );\r\n    }\r\n    \r\n    /**\r\n     * @dev Get record access history\r\n     */\r\n    function getRecordAccessHistory(bytes32 _recordId) external view recordExists(_recordId) returns (\r\n        address[] memory accessors,\r\n        uint256[] memory accessTimes,\r\n        string[] memory reasons\r\n    ) {\r\n        RecordAccess[] storage accesses = recordAccessHistory[_recordId];\r\n        uint256 length = accesses.length;\r\n        \r\n        address[] memory accessorsList = new address[](length);\r\n        uint256[] memory timesList = new uint256[](length);\r\n        string[] memory reasonsList = new string[](length);\r\n        \r\n        for (uint256 i = 0; i < length; i++) {\r\n            accessorsList[i] = accesses[i].accessor;\r\n            timesList[i] = accesses[i].accessTime;\r\n            reasonsList[i] = accesses[i].reason;\r\n        }\r\n        \r\n        return (accessorsList, timesList, reasonsList);\r\n    }\r\n    \r\n    /**\r\n     * @dev Get records by IPFS hash\r\n     */\r\n    function getRecordByIPFSHash(string memory _ipfsHash) external view returns (bytes32 recordId) {\r\n        return ipfsHashToRecordId[_ipfsHash];\r\n    }\r\n    \r\n    /**\r\n     * @dev Get records by status\r\n     */\r\n    function getRecordsByStatus(RecordStatus _status) external view returns (bytes32[] memory) {\r\n        bytes32[] memory result = new bytes32[](allRecordIds.length);\r\n        uint256 count = 0;\r\n        \r\n        for (uint256 i = 0; i < allRecordIds.length; i++) {\r\n            if (records[allRecordIds[i]].status == _status) {\r\n                result[count] = allRecordIds[i];\r\n                count++;\r\n            }\r\n        }\r\n        \r\n        // Resize array\r\n        bytes32[] memory finalResult = new bytes32[](count);\r\n        for (uint256 i = 0; i < count; i++) {\r\n            finalResult[i] = result[i];\r\n        }\r\n        \r\n        return finalResult;\r\n    }\r\n    \r\n    /**\r\n     * @dev Get record shares\r\n     */\r\n    function getRecordShares(bytes32 _recordId) external view recordExists(_recordId) returns (\r\n        address[] memory sharedWith,\r\n        uint256[] memory sharedAt,\r\n        uint256[] memory expiresAt,\r\n        bool[] memory isActive\r\n    ) {\r\n        RecordShare[] storage shares = recordShares[_recordId];\r\n        uint256 length = shares.length;\r\n        \r\n        address[] memory sharedWithList = new address[](length);\r\n        uint256[] memory sharedAtList = new uint256[](length);\r\n        uint256[] memory expiresAtList = new uint256[](length);\r\n        bool[] memory isActiveList = new bool[](length);\r\n        \r\n        for (uint256 i = 0; i < length; i++) {\r\n            sharedWithList[i] = shares[i].sharedWith;\r\n            sharedAtList[i] = shares[i].sharedAt;\r\n            expiresAtList[i] = shares[i].expiresAt;\r\n            isActiveList[i] = shares[i].isActive && shares[i].expiresAt > block.timestamp;\r\n        }\r\n        \r\n        return (sharedWithList, sharedAtList, expiresAtList, isActiveList);\r\n    }\r\n    \r\n    /**\r\n     * @dev Get total records count\r\n     */\r\n    function getTotalRecords() external view returns (uint256) {\r\n        return totalRecords;\r\n    }\r\n    \r\n    /**\r\n     * @dev Check if address is authorized to view record\r\n     */\r\n    function isAuthorizedToView(bytes32 _recordId, address _viewer) external view recordExists(_recordId) returns (bool) {\r\n        MedicalRecord storage record = records[_recordId];\r\n        \r\n        // Patient can always view their records\r\n        if (_viewer == record.patient) return true;\r\n        \r\n        // Provider who created record can view\r\n        if (_viewer == record.provider) return true;\r\n        \r\n        // Check if explicitly authorized\r\n        if (record.authorizedViewers[_viewer]) return true;\r\n        \r\n        // Check patient consent\r\n        (bool hasConsent,) = consentContract.checkConsentView(record.patient, _viewer, record.dataType);\r\n        if (hasConsent) return true;\r\n        \r\n        return false;\r\n    }\r\n    \r\n    /**\r\n     * @dev Emergency function to update contract references\r\n     */\r\n    function updateContractReferences(\r\n        address _newConsentContract,\r\n        address _newMultiSigContract\r\n    ) external onlyAdmin {\r\n        if (_newConsentContract != address(0)) {\r\n            consentContract = ConsentManagement(_newConsentContract);\r\n        }\r\n        if (_newMultiSigContract != address(0)) {\r\n            multiSigContract = MultiSignatureAccess(_newMultiSigContract);\r\n        }\r\n    }\r\n    \r\n    /**\r\n     * @dev Set emergency access window\r\n     */\r\n    function setEmergencyAccessWindow(uint256 _windowInSeconds) external onlyAdmin {\r\n        emergencyAccessWindow = _windowInSeconds;\r\n    }\r\n}",
  "sourcePath": "C:\\Lohith\\psg\\PULSE\\medledger-contracts\\contracts\\RecordRegistry.sol",
  "compiler": {
    "name": "solc",
    "version": "0.8.19+commit.7dd6d404.Emscripten.clang"
  },
  "schemaVersion": "3.4.16",
  "updatedAt": "2025-08-16T15:19:15.296Z",
  "networkType": "ethereum",
  "devdoc": {
    "author": "ARCHBTW Team - MedLedger",
    "details": "Smart contract for managing medical records with IPFS storage",
    "kind": "dev",
    "methods": {
      "accessRecord(bytes32,string,bytes32)": {
        "details": "Access a medical record with proper authorization"
      },
      "addProvider(address,string)": {
        "details": "Add authorized medical provider"
      },
      "deleteRecord(bytes32,string)": {
        "details": "Delete a medical record (soft delete)"
      },
      "getPatientRecords(address,string)": {
        "details": "Get patient's records by type"
      },
      "getRecordAccessHistory(bytes32)": {
        "details": "Get record access history"
      },
      "getRecordByIPFSHash(string)": {
        "details": "Get records by IPFS hash"
      },
      "getRecordDetails(bytes32)": {
        "details": "Get record details"
      },
      "getRecordShares(bytes32)": {
        "details": "Get record shares"
      },
      "getRecordsByStatus(uint8)": {
        "details": "Get records by status"
      },
      "getTotalRecords()": {
        "details": "Get total records count"
      },
      "isAuthorizedToView(bytes32,address)": {
        "details": "Check if address is authorized to view record"
      },
      "registerRecord(address,string,uint8,string,string,bool,string,bool)": {
        "details": "Register a new medical record"
      },
      "removeProvider(address)": {
        "details": "Remove authorized medical provider"
      },
      "setEmergencyAccessWindow(uint256)": {
        "details": "Set emergency access window"
      },
      "shareRecord(bytes32,address,uint256,string)": {
        "details": "Share record with specific address for limited time"
      },
      "updateContractReferences(address,address)": {
        "details": "Emergency function to update contract references"
      },
      "updateRecord(bytes32,string,string,string,string)": {
        "details": "Update an existing medical record (creates new version)"
      }
    },
    "title": "RecordRegistry",
    "version": 1
  },
  "userdoc": {
    "kind": "user",
    "methods": {},
    "version": 1
  }
}